:020000040800F2
:100000002007002089010008EF200008D71300080E
:10001000ED2000088F0200082F22000800000000D9
:10002000000000000000000000000000F3200008B5
:100030009102000800000000F1200008F5200008EF
:10004000A3010008A3010008A3010008A301000800
:10005000A3010008A3010008A3010008A3010008F0
:10006000A3010008A3010008A3010008A3010008E0
:10007000A3010008A3010008A3010008A3010008D0
:10008000A3010008A3010008A3010008A3010008C0
:10009000A3010008A3010008A3010008A3010008B0
:1000A000A3010008A3010008A3010008A3010008A0
:1000B000A3010008A3010008A3010008E51300083C
:1000C000D9130008A3010008A3010008A301000838
:1000D000A3010008A3010008A3010008A301000870
:1000E000A3010008A3010008A301000800F002F822
:1000F00000F03AF80AA090E8000C82448344AAF188
:100100000107DA4501D100F02FF8AFF2090EBAE885
:100110000F0013F0010F18BFFB1A43F0010318473B
:100120001827000038270000103A24BF78C878C18B
:10013000FAD8520724BF30C830C144BF04680C60ED
:10014000704700000023002400250026103A28BF35
:1001500078C1FBD8520728BF30C148BF0B60704739
:100160001FB51FBD10B510BD00F058F81146FFF7C0
:10017000F7FF02F053F900F076F803B4FFF7F2FF4F
:1001800003BC00F07DF8000009488047094800479B
:10019000FEE7FEE7FEE7FEE7FEE7FEE7FEE7FEE737
:1001A000FEE7FEE704480549054A064B7047000094
:1001B00057210008ED000008200100202007002042
:1001C00020030020200300204FF0000200B513465A
:1001D00094469646203922BFA0E80C50A0E80C5067
:1001E000B1F12001BFF4F7AF090728BFA0E80C5018
:1001F00048BF0CC05DF804EB890028BF40F8042B11
:1002000008BF704748BF20F8022B11F0804F18BF7D
:1002100000F8012B7047704770477047754600F033
:100220002BF8AE4605006946534620F00700854688
:1002300018B020B5FFF7B6FFBDE820404FF000062C
:100240004FF000074FF000084FF0000B21F00701BE
:10025000AC46ACE8C009ACE8C009ACE8C009ACE801
:10026000C0098D46704710B50446AFF300802046A4
:10027000BDE81040FFF781BF00487047BC00002078
:1002800001491820ABBEFEE7260002007047FEE7DA
:100290007047000010B590F821100024022903D007
:1002A0000421816301243DE001680A6822F00E0206
:1002B0000A6001680A6822F001020A601A4A0168AD
:1002C000914201D1012121E0174A1432914201D11A
:1002D00010211BE0144A2832914201D1891515E002
:1002E000114A3C32914201D189140FE00E4A50323A
:1002F000914202D14FF4803108E00B4A64329142BE
:1003000002D14FF4801101E04FF08071064A083AA3
:100310005160012180F82110002180F82010416BEC
:1003200001B18847204610BD0800024090F8210026
:100330007047000070B5044600F008F90546601CDF
:1003400002D004480078044400F000F9401BA042A9
:10035000FAD370BD100000202DE9F84FDFF8B891F6
:10036000002409F1040A0AF1040B23460F270BF1BC
:10037000040EC9E00125A5402A40AA427DD1674E5E
:10038000D1F804C0ACEB0608B44532D014DCBCF1A3
:10039000030F3AD009DCBCF1000F2AD0BCF1010FE9
:1003A0001CD0BCF1020F31D11DE0BCF1110F17D0F0
:1003B000BCF1120F2AD119E0B8F5881F19D006DC5C
:1003C000B8F5803F15D0B8F5801F1FD111E0B8F502
:1003D000001F0ED0B8F5041F18D10AE0CB6815E055
:1003E000CB681B1D12E0CB6808330FE0CB680C33E1
:1003F0000CE08B682BB1012B4FF0080303D0456153
:1004000004E0042302E0056100E00023FF2A01D894
:10041000064601E000F104064FEA840501D9A5F182
:100420002005D6F8008007FA05FC28EA0C0803FA34
:1004300005F548EA0508C6F800804D68ED0062D56C
:10044000374DAE6946F00106AE61AD6924F0030692
:1004500005F001050095334D06EB050CDCF808505E
:10046000A607360F07FA06F825EA0805DFF8B88070
:10047000404503D14FF0000817E044E0DFF8AC80BE
:10048000404502D14FF001080FE0DFF8A48040455D
:1004900002D14FF0020808E0DFF89880404502D111
:1004A0004FF0030801E04FF0040808FA06F848EAA4
:1004B0000508CCF808804D68D9F80060ED034D467A
:1004C00001D5164300E096432E604D68DAF80060CF
:1004D000AD03554601D5164300E096432E604D68A6
:1004E000DBF80060ED025D4601D5164300E096435F
:1004F0002E604D68DEF80060AD02754601D51643EA
:1005000000E096432E60641C0D682A46E5407FF4A7
:1005100031AFBDE8F88F0000000401400000111069
:10052000001002400000014000080140000C0140A2
:1005300000100140001401408068084000D00120F4
:1005400070470AB1016170470904FBE70148806800
:100550007047000010000020704770472DE9F041FF
:10056000016804464A694E6890F83E000025D7436A
:10057000FA050BD4F243D20508D46FF4807201253A
:100580004A6121680A6842F400420A60B90508D449
:10059000F143C90505D422686FF4007145F00205E6
:1005A0005161790525D4F143C90522D4638D94F8AE
:1005B0003D10226B202808D13BB9212910D02929D0
:1005C0000ED0282901D1212A0AD022686FF4806137
:1005D000516145F00405102806D0402804D008E0F9
:1005E000204601F055FB04E02068016841F40071E9
:1005F0000160380508D4F043C00505D421686FF4C4
:10060000006045F008054861002D07D0206C2843A4
:1006100020642046BDE8F04100F048BFBDE8F0810D
:100620002DE9F047026800215368C66A90F83E4001
:1006300090F83D50102C12D0402C10D0046C002C9F
:100640007DD05469E443A6077AD4DE43B60577D457
:10065000036C03B19169BDE8F04701F0F5BA976901
:1006600051694FF42A0CC9435FEAC1784FF02A4917
:1006700004D066452AD04E4528D010E0DE43B605AA
:100680000DD4C16A614501D1012103E0C16A494528
:1006900001D10821C162BDE8F04701F03FBA0E0761
:1006A00016D4DE43B60513D4416CC9B21161416B57
:1006B00009B1896A29B9816B002907D0896A0029A3
:1006C00004D00068416841F400614160BDE8F087F2
:1006D0008E0706D4DE43B60503D4BDE8F04701F02B
:1006E00071B9FE43526876074FEA02521DD4002AC0
:1006F000ECDB0A0608D4DA43520505D4490705D5D0
:10070000BDE8F04701F002B94907DFD4D9438905B4
:10071000DCD4212D05D0402CD8D1BDE8F04701F024
:1007200043BABDE8F04701F0AFB8002ACEDB4A0675
:100730000BD4DA43520508D4490708D501E00DE08F
:100740000EE0BDE8F04700F0DDBF4907BED4D94355
:100750008905BBD4BDE8F04700F06BBF916970E735
:10076000E10606D4D943890503D4BDE8F04701F07A
:10077000D1BA2821212D27D0292D25D0650655D481
:10078000DD436D0552D4640752D590F83D30448D59
:10079000002C9BD01269446A2270426A521C426249
:1007A000428D521E4285428D002A8FD12A2B8DD137
:1007B0000268536823F4806353602222026380F846
:1007C0003D1000F0E5F981E7250623D4DD436D05F2
:1007D00020D4640720D590F83D30448D002CF2D011
:1007E000446A24781461426A521C4262428D521E4D
:1007F0004285428D002AE6D1292BE4D10268536854
:1008000023F4806353602122026380F83D1000F0DE
:10081000C0F95BE76107D6D4D9438905D3D4418DAC
:100820000029D0D0416A097811610AE06107CAD471
:10083000D9438905C7D4418D0029C4D01169426AC2
:100840001170416A491C4162418D491E41853DE755
:100850007047000070B5040025D094F83D000025D5
:1008600020B984F83C50204600F054F9242084F844
:100870003D002068016821F00101016020680168E5
:1008800041F4004101602068016821F400410160E9
:1008900000F0AEFA4D4A6168914201D84C4900E03F
:1008A0004C49884201D2012070BD4B492368B0FBFE
:1008B000F1F15E6826F03F060E435E606368934286
:1008C00006D94FF4967359434FF47A73B1FBF3F1A1
:1008D0002368491C1E6A26F03F063143196261688D
:1008E000914210D84900401EB0FBF1F2521CC2F3F5
:1008F0000B02042A01D2042022E0B0FBF1F0401CDC
:10090000C0F30B001CE0A268F2B301EBC10303EBE0
:100910000116431EB3FBF6F35B1C43F480431B0537
:1009200049D092B301EBC10202EB0111401EB0FBB2
:10093000F1F0401CC0F30B0040F4804040F4004054
:100940002168CA694CF6FF739A431043C861D4E921
:10095000071001432068026822F0C00211430160C1
:10096000D4E9030101432068826848F2FF339A43C7
:1009700011438160D4E9050108432168CA6822F067
:10098000FF021043C86001E00EE016E02068016835
:1009900041F0010101602564202084F83D002563B9
:1009A00084F83E50002070BD01EB4106431EB3FBAE
:1009B000F6F35B1CB3E70120C2E701EB4101401EE7
:1009C000B0FBF1F0401CC0F30B00B7E7A0860100BC
:1009D00080841E0000093D0040420F0070477047B0
:1009E000704700002DE9F84F1F4690468A4604469E
:1009F000DDF82890FFF7AAFD054694F83D00202871
:100A00007FD11923012240492046009501F056FA72
:100A1000002876D194F83C00012872D0012084F897
:100A20003C0020680168C90703D1016841F0010159
:100A300001602068016821F400610160212084F8D0
:100A40003D00102084F83E0000262664C4F824806F
:100A50006785608D20852D48E0622B464A465146C9
:100A6000204600F0C3FE90B920684169806900907B
:100A700036E02A464946204601F09FFA50B1206CE4
:100A8000042804D12068016841F40071016001204C
:100A9000BDE8F88F606A216800780861606A401CD0
:100AA0006062618D491E6185218D491E89B2218553
:100AB00022685369DB435B070BD451B100781061A6
:100AC000606A401C6062608D401E6085208D401E03
:100AD00020852A464946204601F0CAF90028CED191
:100AE000208D0028C5D154F83D0B016841F40071F8
:100AF0000160202004F81E09E67766770020C7E72A
:100B0000FFE70220C4E70000020010000000FFFF22
:100B10007047704710B586B0002100910191029195
:100B200003910068174988422AD1174CA06940F008
:100B30000800A061A069694600F008000490C02088
:100B4000009012200190032003901048FFF704FC4E
:100B5000E06940F40010E061E069002200F4001058
:100B6000049011461F2000F07BF81F2000F06AF867
:100B700000221146202000F073F8202000F062F8D7
:100B800006B010BD0054004000100240000C0140AF
:100B9000704770470248816802781144816070474D
:100BA00010000020074810B5016841F010010160F5
:100BB000032000F075F80F2000F006F800F024F88C
:100BC000002010BD0020024070B50D4D04464FF4CA
:100BD0007A712878B1FBF0F00A490968B1FBF0F0AE
:100BE00000F0DCFA48B9102C07D200222146501E32
:100BF00000F036F800206C6070BD012070BD000070
:100C0000100000201C0000200C4808B5816941F04C
:100C100001018161816901F001010091C16941F027
:100C20008051C161C06900F0805000900448416863
:100C300021F0E06141F00071416008BD0010024008
:100C400000000140002809DB00F01F020121914053
:100C50004009800000F1E020C0F80011704700005A
:100C6000F0B40E4B1B680C46C3F30223C3F1070517
:100C7000042D00D90425191D072901D2002300E005
:100C8000DB1E012606FA05F1491E214099409E40CF
:100C9000761E16403143F0BC01F0CABA0CED00E0FC
:100CA000064900F0070208684FF6FF03184040EAC3
:100CB0000220034A10430860704700000CED00E07A
:100CC0000000FA052DE9F0470F46050061D0434EBC
:100CD000306800F00700B84209D2306820F0070001
:100CE00038433060306800F00700B84251D12868BE
:100CF0003B4C810712D5400703D5606840F4E060A3
:100D000060602878000703D5606840F46050606038
:100D10006068A96820F0F000084360602878C00788
:100D200028D06868012810D02168022810D08907CF
:100D300000292EDA616821F0030101436160FFF7A9
:100D400005FC804641F288390DE021688903EFE710
:100D50008901EDE7FFF7FAFBA0EB0801494502D94D
:100D60000320BDE8F0876068696800F00C00B0EB14
:100D7000810FEFD1306800F00700B8420BD930681E
:100D800020F0070038433060306800F00700B842B8
:100D900001D00120E5E72878400705D56068E968BB
:100DA00020F4E060084360602878000706D560689A
:100DB000296920F4605040EAC100606000F028F822
:100DC0006168084AC1F30311515CC84006490860D4
:100DD00006480068FFF7F8FE0020C2E70020024046
:100DE00000100240202800081C00002014000020F1
:100DF0000448054900684968044AC1F30221515C6E
:100E0000C84070471C000020001002403028000835
:100E100012A185B00FC98DE80F0014A0144A006814
:100E200004905168134801F00C03042B10D0082BD8
:100E30000ED1C1F38343C9031DF803000AD55168DD
:100E400004AAC1F34041515C0A4A5043B0FBF1F09F
:100E500005B0704708494843FAE70000020304055B
:100E6000060708090A0B0C0D0E0F101001020000F6
:100E70000010024000127A0000093D002DE9F84FF1
:100E8000040070D02078C04DC00749D06868C0F316
:100E90008100012807D06868C0F38100022809D1C9
:100EA0006868C00306D52868800339D560680028C3
:100EB000E7D035E06068B0F5803F0BD010B1B0F5F9
:100EC000A02F11D0286820F480302860286820F4F2
:100ED000802002E0286840F480302860606890B18B
:100EE000FFF734FB06460AE0286840F480202860BB
:100EF000F0E700BFFFF72AFB801B642873D828683F
:100F00008003F7D50CE0FFF721FB064605E000BFA4
:100F1000FFF71CFB801B6428F0D828688003F7D4F7
:100F200020789A4E80074FF001094FF0000839D51C
:100F3000686810F00C0F07D06868C0F381000228C1
:100F400009D16868C00306D42868800714D52069D1
:100F5000012808D110E02069B0B1C6F80090FFF771
:100F6000F5FA074605E00AE1FFF7F0FAC01B022890
:100F7000C4D828688007F7D52868616920F0F80090
:100F800040EAC10028600DE0C6F80080FFF7DEFAF5
:100F9000074604E0FFF7DAFAC01B022823D82868C6
:100FA0008007F7D4207800072CD57948A169D9B1FA
:100FB000C0F80090FFF7CAFA074604E0FFF7C6FA48
:100FC000C01B02280FD8686A8007F7D571484FF414
:100FD000FA510068B0FBF1F0009000BF0098411E8C
:100FE0000091FAD20EE080E0C0F80080FFF7AEFA80
:100FF000074604E0FFF7AAFAC01B022875D8686A02
:101000008007F7D42078400760D5E8690027C00042
:1010100008D4E86940F08050E861E869012700F0F1
:10102000805000905C480168C90513D4016883466C
:1010300041F480710160FFF789FA824606E000BF43
:10104000FFF784FAA0EB0A0064284ED8DBF8000012
:10105000C005F5D5E06801280AD008B1052813D0ED
:10106000286A20F001002862286A20F0040002E0CB
:10107000286A40F001002862E06841F2883B98B19C
:10108000FFF764FA82460BE0286A40F00400286209
:10109000EEE700BFFFF75AFAA0EB0A0159455AD80C
:1010A000286A8007F6D50CE0FFF750FA824605E083
:1010B000FFF74CFAA0EB0A0159454CD8286A800783
:1010C000F6D41FB1E86920F08050E861E06988B388
:1010D0006968C1F38101022944D00228C6F8608002
:1010E00004D0FFF733FA044638E034E0FFF72EFA75
:1010F000074604E0FFF72AFAC01B02282BD828680D
:101100008001F7D4206AB0F5803F05D16868A168F6
:1011100020F4003008436860D4E908010843696896
:1011200021F4741108436860C6F86090FFF70EFA66
:10113000044606E025E000BFFFF708FA001B02287E
:1011400009D828688001F7D51BE000BFFFF7FEF93A
:10115000001B022802D90320BDE8F88F286880010F
:10116000F4D40EE00128F7D06868226A00F48031D8
:10117000914204D1616A00F47010884201D00120CC
:10118000EAE70020E8E700000010024000004242C9
:10119000800442421C0000200070004010B5401E38
:1011A000B0F1807F01D3012010BD4FF0E0246061D9
:1011B0000F21601701F03CF80020A061072020619A
:1011C000002010BD70B590F83C20012A26D00124E3
:1011D00080F83C40022280F83D2003685A689D68F0
:1011E00022F070060A6832435A600D4B02689A4238
:1011F00008D0B2F1804F05D00A4B9A4202D00A4B78
:101200009A4204D1496825F080031943916080F81F
:101210003D40002180F83C10084670BD022070BDA2
:10122000002C0140000400400008004010B50400FC
:1012300003D094F83D0010B107E0012010BD00205C
:1012400084F83C00204600F01FF8022084F83D009E
:10125000211D206800F080FF012084F8460084F8FA
:101260003E0084F83F0084F8400084F8410084F890
:10127000420084F8430084F8440084F8450084F870
:101280003D00002010BD000008B5006806498842F6
:1012900008D10648816941F400618161806900F4E8
:1012A0000060009008BD0000002C014000100240CA
:1012B00090F83D10012901D001207047022180F8EB
:1012C0003D1000680B49884208D0B0F1804F05D02E
:1012D0000949884202D00949884204D1816801F055
:1012E0000701062903D0016841F0010101600020D7
:1012F00070470000002C014000040040000800403E
:1013000070B5044690F83C00012817D0012584F8F8
:101310003C50022084F83D002068826822F0770269
:1013200022F47F4282600868502830D00DDC2028EB
:101330004DD005DC98B310283BD148E0022070BDA9
:10134000302844D0402834D139E0602828D0702893
:1013500006D0B0F5805F2CD0B0F5005F29D10AE04F
:10136000CB68D1E90121206800F02CFF206881685A
:1013700041F0770109E0CB68D1E90121206800F054
:1013800021FF2068816841F48041816011E0CA68D2
:101390004968206800F028FF5021206807E016E027
:1013A000CA684968206800F030FF6021206800F0BA
:1013B00013FF84F83D50002084F83C0070BDCA68DB
:1013C0004968206800F010FF40212068EFE722689C
:1013D00001461046EBE7FEE70148FFF7BFB8000003
:1013E000200000200148FFF71BB90000200000206A
:1013F00038B5406A002190F83D202B4B46F2A814E6
:101400001B68B3FBF4F3C3EBC30303EB8303009349
:101410003BB15B1E009303681B689B0505D5009BD1
:10142000F6E7036C43F020030364436B03B1996256
:10143000836B03B1996203681C6824F480641C60A8
:101440004185436B03B15963836B03B159630368EF
:101450001C6824F001041C6090F83D402023602C9F
:101460000BD0282434EA02020FD080F83D3080F8F7
:101470003E1000BFFFF7ECF938BD80F83D3080F832
:101480003E100164FFF768F838BD0268136843F046
:10149000010313600268136843F4806313600163FF
:1014A00080F83D40E6E700001C00002070B50446CF
:1014B00090F83D0094F83E10102901D0402906D143
:1014C000222804D121680A6822F400620A602821D7
:1014D00031EA00024FF000054FF0200626D02168C7
:1014E0004968090505D4602803D084F83D6084F874
:1014F0003E50256320684168090537D5416821F4CD
:1015000000614160606B3D4990F82120012A11D0B3
:101510004163606BFEF7BEFE38B32068016821F0BE
:101520000101016084F83D60606B1CE0256384F874
:101530003D10DFE7A06B4163A06BFEF7ABFEA0B1EF
:1015400020684169C943490605D40069616A087089
:10155000606A401C60622068016821F0010101603E
:1015600084F83D60A06B416B884710E094F83D1013
:10157000602910D04169C943490605D40069616AF0
:101580000870606A401C60622046FFF761F9206CB9
:10159000C1071CD115E084F83D6025644169C94349
:1015A000490605D40069616A0870606A401C60627F
:1015B0002068016821F0010101602046FEF7CCFFA0
:1015C000E5E7810703D4410701D4000704D520686B
:1015D000416821F4E061416094F83D00216C4907C5
:1015E0000BD5282809D10648E062256384F83D60C0
:1015F00084F83E502046FFF7F1F970BDF113000862
:101600000000FFFF01684A69D24352050FD46FF40E
:1016100080624A61002140F8301F202242738173AA
:10162000026942F004020261017301207047002048
:10163000704710B5C26A438D0168042B06D0438DF4
:10164000032B08D0438D022B1DD012E04A6822F4F0
:1016500080624A600CE04B6823F480634B60042A8C
:1016600006D0022A04D001680A6822F480620A6067
:1016700001680969426A1170416A491C4162418DE1
:10168000491E418510BD012A30D0102A2ED0042ACF
:1016900030D0022A2ED00A6842F400720A60016833
:1016A0000969426A1170416A491C4162428D521EA9
:1016B0004285026812690A70416A491C4162418D83
:1016C000491E418501684A6822F440724A6020211F
:1016D00080F83D1090F83E200021402A80F83E100E
:1016E0000CD012210163FFF77AF910BD0A6822F4C9
:1016F0008062D3E70A6842F48062CFE70163FFF7B4
:1017000007FA10BD38B590F83D10222914D1418D4B
:10171000032912D901680969426A1170416A491C9A
:101720004162418D491E4185418D032904D10068E4
:10173000416821F48061416038BDC26A022AFBD051
:10174000012901D00029F7D1274946F2A813002228
:101750000968B1FBF3F101EB8101009101682023DD
:10176000009C641E009422D00C68A405F8D40C6878
:1017700024F480640C6001684C6824F4E0644C60DC
:1017800001680969446A2170416A491C4162418DBE
:10179000491E418580F83D3090F83E1080F83E208B
:1017A00040291DD012210163FFF719F938BD046CDF
:1017B00044F0200404644C6824F4E0644C60016844
:1017C0000969446A2170416A491C4162418D491E80
:1017D000418580F83D3080F83E20FFF739F838BD6C
:1017E0000263FFF795F938BD1C000020F8B50446E8
:1017F000C06A1E460D461746082807D0012805D0A6
:1018000010F5803F02D0206B122804D120680168B7
:1018100041F480710160134600224FF0011120460F
:10182000009600F04BFB40B120680068C00502D56F
:101830004FF4007020640320F8BD2069B0F5804F9C
:101840000ED00620216800EAD51040F0F0000861B3
:1018500033463A460B49204600F064FB78B902E073
:1018600005F0FE0000E0E8B2216808610549334652
:101870003A46891F204600F055FB0028DCD00120A5
:10188000F8BD00000800010010B5C26A90F83D10D4
:1018900021290BD1418D51B1416A0268097811614A
:1018A000416A491C4162418D491E418510BD20237A
:1018B0000021082A13D0202A11D012F5803F0ED023
:1018C0000268546824F4E06454601122026380F8D2
:1018D0003E1080F83D3000BFFFF782F810BD02686F
:1018E000546824F4E06454600268146844F400749A
:1018F0001460016380F83D3090F83E2080F83E107F
:10190000402AE9D1FFF705F910BD000010B590F8A5
:101910003D1090F83E30C26A048DB4B1212903D045
:10192000402B11D122290FD1418DE1B390F83E1007
:10193000402942D0416A026809781161416A491C14
:101940004162418D491E418510BD2129E8D12023E6
:101950000021082A13D0202A11D012F5803F0ED082
:101960000268546824F4E06454601122026380F831
:101970003E1080F83D3000BFFFF732F810BD02681E
:10198000546824F4E06454600268146844F40074F9
:101990001460016380F83D3090F83E2080F83E10DE
:1019A000402AE9D100E002E0FFF7B3F810BD00687B
:1019B000416821F48061416010BDBDE8104000F035
:1019C000F3B8000078B590F83E50C26A046B90F806
:1019D0003D6000230168222E73D1066D0EB9402DA3
:1019E0006FD0056D1DB90569B5F5404F1BD0458D0C
:1019F00095B3468D484D012E20D0448D022C4DD0FC
:101A00000C6844F480640C6001684C68240579D546
:101A1000AA4273D0012A71D0082A6FD0102A6DD043
:101A2000202A6BD06EE04A698A6900920A6842F403
:101A300080720A60016D491C016578BDAA4214D10B
:101A40000A6822F480620A6001684A68120504D5B7
:101A50000A6822F4806217E0FFE74A698A69009207
:101A60000A6842F400720A6050E0082A10D0202A66
:101A70000ED0122C0AD0042A03D0022A01D0102A38
:101A8000E6D10A6842F480620A603BE0012ADFD0B6
:101A90000A6822F480620A600168DEE7042A11D035
:101AA000022A0FD0102A0DD00C6844F400640C6098
:101AB00001684C698C6900940C6824F480640C60A3
:101AC00008E025E00C6844F480640C6001684C690F
:101AD0008969009101684C68240517D5AA4207D08E
:101AE000012A05D0082A03D0102A01D0202A0DD1BE
:101AF0004A6842F480524A6008E0FFE74A6842F4CC
:101B000080524A6001684A6989690091036578BD1D
:101B100048698869009078BD0000FFFF90F83E108A
:101B2000402910D00169B1F5804F19D0016DA9B3DA
:101B3000016D012910D1416C5FF0F10201F4407197
:101B400042EAD11106E0016D0029416C05D0C9B20D
:101B500041F0010100680161704701F0FE01F9E701
:101B600090F83D102129416C09D0C9B241F0010122
:101B700002681161416B29B1896A49B902E001F03B
:101B8000FE01F5E7816B0029E6D0896A0029E3D0E0
:101B90000068416841F4006141607047FFE7416CB3
:101BA000F02201F44071CBE710B590F83D10026DC2
:101BB00022B3026D012A2FD0026D022A1DD12229E3
:101BC0002FD0428D0AB1212933D0428D002A14D161
:101BD000212912D101684A6822F4E0624A60016852
:101BE0000A6842F400720A6000210163202280F832
:101BF0003D2080F83E10FEF78CFF10BDC16C01291E
:101C0000816C02D0C1F3072108E00268C9B21161FA
:101C1000016D891C016510BD816CC9B2026811613A
:101C200004E001680A6842F480720A60016D491C90
:101C3000F0E7416A026809781161416A491C416212
:101C4000418D491E418510BD38B50C4690F83D20A8
:101C500000212825954302680B4605D051699169FA
:101C6000009180F83C3038BD556825F4806555609A
:101C7000E243540700D50121120601D5828900E014
:101C8000028B80F83C3092B2FEF767FC38BD000052
:101C90002DE9F04190F83D40C26A002320261C4FF8
:101CA00001686FF48065082A01D0202A01D1282C10
:101CB00004D0212C16D04D61BDE8F081C7624A687E
:101CC00022F4E0624A6001684D6101680A6822F40A
:101CD00080620A60036380F83D6080F83E30FEF762
:101CE0007DFEE9E7C7622122026380F83D6080F84B
:101CF0003E304A6822F4E0624A6001684D61016842
:101D00000A6822F480620A60FEF743FFD4E700000D
:101D10000000FFFFF8B590F83D6004460068416898
:101D200021F4E0614160206800254169009101686B
:101D300041F0010101602068016821F480610160C7
:101D400020684168090520D5474F222E48D02A2E09
:101D500046D0616B096849686185618D19B1216C54
:101D600041F004012164416821F400614160606B2D
:101D7000FEF7DCFA012808D0606B4763606BFEF762
:101D800089FA10B1606B416B8847608D08B3206899
:101D90004169C943490708D40069616A0870606AEB
:101DA000401C6062608D401E608520684169C943A7
:101DB000490608D40069616A0870606A401C606264
:101DC000608D401E6085608D18B1206C40F004006D
:101DD0002064206C00B32046BDE8F840FFF766BBE6
:101DE000A16B096849686185618D19B1216C41F069
:101DF00004012164416821F400614160A06BFEF799
:101E000095FA0128C1D0A06B4763A06BFEF742FA98
:101E10000028BAD0A06BB6E72A2E06D12563282069
:101E200084F83D002046FEF7B3FE94F83D102020D4
:101E300028290DD0216B222901D0222E07D125631C
:101E400084F83D0084F83E502046FEF7A1FEF8BD20
:101E50000649E162256384F83D0084F83E5020463F
:101E6000FEF7BCFDF8BD0000F11300080000FFFF05
:101E700070B516460D4604460DE02046FFF7C2FB3E
:101E800008B1012070BD681C05D0FEF75FFB801B08
:101E9000A84207D835B120684069C0434007ECD458
:101EA000002070BD002044F8300F20216173A07322
:101EB000216941F0200121612073E2E72DE9F0471B
:101EC0001E4690460D460446C1F30747DDF82090B4
:101ED00008E0701C06D0FEF739FBA0EB0900B04209
:101EE0000FD876B12068012F18D0806925EA00004C
:101EF0000004000C14D000214145EAD00020BDE8C8
:101F0000F087002044F8300F20216173A07321690D
:101F100041F02001216120730120F0E74069E5E7ED
:101F20000121E9E72DE9F0479A4691460E4604461D
:101F300000254FF02008C1F3074725E020684069DD
:101F4000C043400514D42068016841F40071016069
:101F500021686FF480604861256384F83D8084F8CF
:101F60003E50206C40F00400206484F83C501FE098
:101F7000B9F1FF3F08D0FEF7E9FAA0EB0A014945A5
:101F80000CD8B9F1000F09D02068012F13D0806957
:101F900026EA00000004000C0BD0CFE744F8305FC5
:101FA00084F80D80A573206940F02000206125731E
:101FB0000120BDE8F0874069EAE770B516460D4696
:101FC00004460DE02046FFF71DFB08B1012070BD5F
:101FD000681C05D0FEF7BAFA801BA84207D835B1B5
:101FE00020684069C0430006ECD4002070BD00208A
:101FF00044F8300F20216173A073216941F0200162
:1020000021612073E2E7000030B585B000241B4851
:102010000094019402940394816941F0200181614C
:10202000816901F020010491816941F0040181611D
:10203000816901F004010491816941F00801816125
:1020400080690F4D00F0080004900022012128460D
:10205000FEF777FA0220012103900091CDE90114E7
:1020600069462846FEF778F92815CDE90004694647
:1020700028460294FEF770F905B030BD001002400A
:10208000000C014010B586B000241748009401945C
:102090000294039404941349059401604721C0E914
:1020A00001144FF6FF71C0E9031444618461FFF726
:1020B000BDF808B172B6FEE74FF480500090694653
:1020C0000948FFF71DF908B172B6FEE7049404A9A8
:1020D00005480594FFF776F8002801D072B6FEE7B0
:1020E00006B010BD002C014074000020FEE7FEE7A2
:1020F00070477047FEF74EBD30B58FB02821684657
:10210000FEF762F814210AA8FEF75EF80121080420
:10211000CDE900100024029402250491CDE9075076
:102120004FF4E01009906846FEF7A8FE08B172B6B9
:10213000FEE70F20CDE90A054FF48060CDE90C40A1
:1021400002210AA80E94FEF7BDFD002801D072B648
:10215000FEE70FB030BD7047F0B50268164B174C64
:10216000174D4FF08047984205D0B84203D0A042A7
:1021700001D0A84203D122F070064A683243984247
:1021800005D0B84203D0A04201D0A84203D122F426
:102190004074CA6822434C6922F0800222430260E4
:1021A0008A68C2620A688262984201D10969016341
:1021B00001214161F0BD0000002C014000040040FD
:1021C0000008004010B5846842EA032224F47F44EA
:1021D0000A432243826010BD826822F070020A43E3
:1021E00042F007018160704710B5036A046A24F069
:1021F00001040462846924F0F00444EA021423F028
:102200000A020A438461026210BD10B5036A23F01A
:10221000100303628369046A23F4704343EA0232C1
:1022200024F0A00343EA01118261016210BDFEE7C0
:102230000907090E002804DB00F1E02080F80014F3
:10224000704700F00F0000F1E02080F8141D704787
:102250002DE9F041234E012211463046FEF771F977
:10226000214D0020296848622868416A0A29FCD368
:10227000002201213046FEF764F9FEF767F91B4C96
:102280004FF48067E06039463046FEF755F928B9CB
:10229000FEF75CF9E1680A318842F4D32868406AA5
:1022A0006060FEF753F9E06039463046FEF744F9C6
:1022B00028B1FEF74BF9E16832318842F4D328683F
:1022C000406AA0606168401A00F021F9084A094B91
:1022D00000F030F94FF0FF3200F05CFABDE8F04159
:1022E00000F0E6B8000C014074000020000000205F
:1022F0009CC420B07268A13F10B5802000F044F863
:102300000024202000F060F8641C462CF9DB10BD8E
:1023100010B53220FEF70EF8302000F035F8052019
:10232000FEF708F8302000F02FF80120FEF702F841
:10233000302000F029F80A20FDF7FCFF202000F0F3
:1023400023F80A20FDF7F6FF282000F01DF80120F1
:10235000FDF7F0FF082000F017F80120FDF7EAFF75
:10236000012000F011F80120FDF7E4FF0120FDF746
:10237000E1FF062000F008F80120FDF7DBFFBDE8D3
:1023800010400C20AFF300801CB500F0F00141F0CC
:102390000C028DF8042041F0080100018DF80510B1
:1023A00040F00C018DF8061040F008008DF8070091
:1023B00064200090042301AA4E210248FEF712FB7C
:1023C0001CBD0000200000201CB500F0F00141F011
:1023D0000D028DF8042041F0090100018DF805106F
:1023E00040F00D018DF8061040F009008DF807004F
:1023F00064200090042301AA4E210248FEF7F2FA5D
:102400001CBD00002000002010B5044602E0641C42
:10241000FFF7DAFF20780028F9D110BDFEF7C2FBE4
:10242000FFF776FFFFF768FEFFF7EEFDFFF72AFEE6
:10243000164815494FF4804201601549416000215A
:102440008160C0E9031241618161C1610162FEF7EF
:1024500001FA08B172B6FEE70C485430FEF728FFC7
:10246000002201210B48FEF76CF8FFF745FF0A4CEC
:102470002088FFF7EDFE2088FFF7EAFE0528F7DA4F
:1024800006A0FFF7C1FFF3E7005400402000002042
:10249000A0860100000C014000000020616475006E
:1024A00002494FF0000000F043B900BF0000F87F80
:1024B0004FEA41034FEA5353A3F58063D3F11E0360
:1024C000C8BFD3F1210C0CDD4FF0004242EAC1221B
:1024D00042EA505232FA03FC8CEAE17CACEBE17048
:1024E0007047102BC4BF0020704703F5787CBCF107
:1024F000FF3F04D06FF0004282EA2100704770B5C0
:1025000000F0C2F84992248000207047F2E7B0FA48
:1025100080F310FA03F10AD0C3F11D0303F58063C1
:102520004FEA41504FEA035202EBD12170474FF07E
:1025300000007047DFF848C170B51CEA111E1EBFCD
:102540001CEA13159EEA0C0F95EA0C0F00F06F8041
:1025500081EA030423EA4C134EEAD47E21EA4C11AB
:1025600041F4801143F48013AE44A1FB024CA0FB64
:102570000365AEF17F7E361955EB0C05A1FB034CCC
:102580004CF10003A0FB021C16EB0C06654153F155
:102590000003094218BF46F0010613F4007F0BD177
:1025A0004FEA03314FEA0530340341EA155140EA5E
:1025B00016506FF003020AE04FEAC3214FEAC5202C
:1025C000F40241EA555140EA56506FF0020202EB24
:1025D0002E4201EB025585EACE710AD05FEA440C27
:1025E00018BF24F0004450F1000041F1000120EA3E
:1025F000D47040F2FE7C624500D270BDA84214BF88
:102600004FF080444FF04044002E08BF0024BEF13C
:10261000806FA8BFA1F1C041BDE8704080F2828008
:102620004FF0000001F1C04101F0004170479EEA07
:102630000C0F0CEA131518BF95EA0C0F06D04FF0DB
:10264000000081EA030E0EF0004170BD00F01CF89E
:102650008900013E00F007B800F009B84FEA430CCA
:102660005FEA5C5C08D081EA030100F05BB84FEAE6
:10267000410C5FEA5C5CF6D14FF000000149704705
:102680000000FF070000F87F0EF1020E2EF0030E8F
:102690005EF8046B364205D4012A43EB030515F5B9
:1026A000001F12D8012841EB010C1CF5001F0CD8AB
:1026B0000ED14FEAD17C15F5001F0CEB4C0C0CF140
:1026C000020C08BF4CEBD37C04E04FF0080C01E097
:1026D0004FEAD37C0CEB4C0526FA05F606F007060C
:1026E000B6F1040C06D20EEB860CBDE870404CF03F
:1026F000010C6047DFE80CF0090B02024FF00041CB
:102700004FF00000A1F5002170BD194610460128C8
:1027100051EB010418BFD4F5001484BF002001F070
:10272000004170BD0808A0F500114FEA3101704763
:102730000CF00F03092B08BF082000F059800A2B6A
:102740000BD0082B18BF704708BF1CF0400F0AD0F1
:102750004FF000004FF0000170471CF0400F18BF11
:102760004FF0004070471CF0100F08D020F070436D
:1027700000F07F4242EAD3014FEA4370704700F015
:10278000604021F07F4242EA000201F07F4040EACF
:10279000727070474FF0FF0C4CF4E06C1CEA115360
:1027A0001CBF9CEA030C9445C2BFDA4201EB025104
:1027B0007047002B0DD0BCF1000F0FD0002A01F0A4
:1027C0000041A4BF41F0E04141F07F614FF00000C3
:1027D000704701F000414FF00000704750EA0133AC
:1027E0004FF09B0C18BF4CF0806C7FF459AE7047D3
:1027F0001CF4801F11D01CF4E02F03D06FEACC3101
:10280000490070474FF04050EFF3008222F07042D1
:1028100042EA000282F3008870474FF000007047E0
:102820000000000000000000010203040607080980
:1028300000000000010203045828000800000020E6
:10284000200000002801000878280008200000204F
:102850000007000044010008000000000000000024
:102860000000000000000000010000001000000057
:08287000000000000024F40048
:04000005080000ED02
:00000001FF
