:020000040800F2
:10000000D006002089010008A30F0008D10E0008C7
:10001000A10F00088F02000847120008000000002E
:10002000000000000000000000000000A70F000812
:100030009102000800000000A50F0008A90F0008A9
:10004000A3010008A3010008A3010008A301000800
:10005000A3010008A3010008A3010008A3010008F0
:10006000A3010008A3010008A3010008A3010008E0
:10007000A3010008A3010008A3010008A3010008D0
:10008000A3010008A3010008A3010008A3010008C0
:10009000A3010008A3010008A3010008A3010008B0
:1000A000A3010008A3010008A3010008A3010008A0
:1000B000A3010008A3010008A3010008A301000890
:1000C000A3010008A3010008A3010008A301000880
:1000D000A3010008A3010008A3010008A301000870
:1000E000A3010008A3010008A301000800F002F822
:1000F00000F03AF80AA090E8000C82448344AAF188
:100100000107DA4501D100F02FF8AFF2090EBAE885
:100110000F0013F0010F18BFFB1A43F0010318473B
:100120004016000060160000103A24BF78C878C15D
:10013000FAD8520724BF30C830C144BF04680C60ED
:10014000704700000023002400250026103A28BF35
:1001500078C1FBD8520728BF30C148BF0B60704739
:100160001FB51FBD10B510BD00F058F81146FFF7C0
:10017000F7FF01F0CDF800F076F803B4FFF7F2FFD7
:1001800003BC00F07DF8000009488047094800479B
:10019000FEE7FEE7FEE7FEE7FEE7FEE7FEE7FEE737
:1001A000FEE7FEE704480549054A064B7047000094
:1001B0000D100008ED000008D0000020D00600203F
:1001C000D0020020D00200204FF0000200B51346FC
:1001D00094469646203922BFA0E80C50A0E80C5067
:1001E000B1F12001BFF4F7AF090728BFA0E80C5018
:1001F00048BF0CC05DF804EB890028BF40F8042B11
:1002000008BF704748BF20F8022B11F0804F18BF7D
:1002100000F8012B7047704770477047754600F033
:100220002BF8AE4605006946534620F00700854688
:1002300018B020B5FFF7B6FFBDE820404FF000062C
:100240004FF000074FF000084FF0000B21F00701BE
:10025000AC46ACE8C009ACE8C009ACE8C009ACE801
:10026000C0098D46704710B50446AFF300802046A4
:10027000BDE81040FFF781BF004870476C000020C8
:1002800001491820ABBEFEE7260002007047FEE7DA
:100290007047000070B5044600F008F90546601C80
:1002A00002D004480078044400F000F9401BA0424A
:1002B000FAD370BD140000202DE9F84FDFF8B89193
:1002C000002409F1040A0AF1040B23460F270BF15D
:1002D000040EC9E00125A5402A40AA427DD1674EFF
:1002E000D1F804C0ACEB0608B44532D014DCBCF144
:1002F000030F3AD009DCBCF1000F2AD0BCF1010F8A
:100300001CD0BCF1020F31D11DE0BCF1110F17D090
:10031000BCF1120F2AD119E0B8F5881F19D006DCFC
:10032000B8F5803F15D0B8F5801F1FD111E0B8F5A2
:10033000001F0ED0B8F5041F18D10AE0CB6815E0F5
:10034000CB681B1D12E0CB6808330FE0CB680C3381
:100350000CE08B682BB1012B4FF0080303D04561F3
:1003600004E0042302E0056100E00023FF2A01D835
:10037000064601E000F104064FEA840501D9A5F123
:100380002005D6F8008007FA05FC28EA0C0803FAD5
:1003900005F548EA0508C6F800804D68ED0062D50D
:1003A000374DAE6946F00106AE61AD6924F0030633
:1003B00005F001050095334D06EB050CDCF80850FF
:1003C000A607360F07FA06F825EA0805DFF8B88011
:1003D000404503D14FF0000817E044E0DFF8AC805F
:1003E000404502D14FF001080FE0DFF8A4804045FE
:1003F00002D14FF0020808E0DFF89880404502D1B2
:100400004FF0030801E04FF0040808FA06F848EA44
:100410000508CCF808804D68D9F80060ED034D461A
:1004200001D5164300E096432E604D68DAF800606F
:10043000AD03554601D5164300E096432E604D6846
:10044000DBF80060ED025D4601D5164300E09643FF
:100450002E604D68DEF80060AD02754601D516438A
:1004600000E096432E60641C0D682A46E5407FF448
:1004700031AFBDE8F88F000000040140000011100A
:10048000001002400000014000080140000C014043
:1004900000100140001401408068084000D0012095
:1004A00070470AB1016170470904FBE701488068A1
:1004B000704700001400002002488168027811444F
:1004C0008160704714000020074810B5016841F0B2
:1004D00010010160032000F067F80F2000F006F81B
:1004E00000F024F8002010BD0020024070B50D4D32
:1004F00004464FF47A712878B1FBF0F00A49096894
:10050000B1FBF0F000F0BEFA48B9102C07D200227F
:100510002146501E00F028F800206C6070BD0120BC
:1005200070BD000014000020200000200C4808B519
:10053000816941F001018161816901F0010100914E
:10054000C16941F08051C161C06900F080500090E4
:100550000448416821F0E06141F00071416008BD4C
:100560000010024000000140F0B40E4B1B680C4626
:10057000C3F30223C3F10705042D00D90425191D77
:10058000072901D2002300E0DB1E012606FA05F14F
:10059000491E214099409E40761E16403143F0BCD2
:1005A00000F052BE0CED00E0064900F007020868BA
:1005B0004FF6FF03184040EA0220034A1043086048
:1005C000704700000CED00E00000FA052DE9F0474F
:1005D0000F46050061D0434E306800F00700B84276
:1005E00009D2306820F0070038433060306800F0EE
:1005F0000700B84251D128683B4C810712D540070B
:1006000003D5606840F4E06060602878000703D597
:10061000606840F4605060606068A96820F0F00095
:10062000084360602878C00728D06868012810D087
:100630002168022810D0890700292EDA616821F08C
:10064000030101436160FFF731FF804641F28839C1
:100650000DE021688903EFE78901EDE7FFF726FF49
:10066000A0EB0801494502D90320BDE8F087606886
:10067000696800F00C00B0EB810FEFD1306800F03A
:100680000700B8420BD9306820F0070038433060CB
:10069000306800F00700B84201D00120E5E7287873
:1006A000400705D56068E96820F4E06008436060B1
:1006B0002878000706D56068296920F4605040EA70
:1006C000C100606000F018F86168084AC1F30311C6
:1006D000515CC8400649086006480068FFF706FFFD
:1006E0000020C2E70020024000100240501700081E
:1006F000200000201800002012A185B00FC98DE84D
:100700000F0014A0144A006804905168134801F0C7
:100710000C03042B10D0082B0ED1C1F38343C90363
:100720001DF803000AD5516804AAC1F34041515C89
:100730000A4A5043B0FBF1F005B0704708494843FE
:10074000FAE7000002030405060708090A0B0C0D6E
:100750000E0F1010010200000010024000127A007B
:1007600000093D002DE9F84F040070D02078C04DFD
:10077000C00749D06868C0F38100012807D06868C5
:10078000C0F38100022809D16868C00306D5286833
:10079000800339D560680028E7D035E06068B0F59F
:1007A000803F0BD010B1B0F5A02F11D0286820F4F5
:1007B00080302860286820F4802002E0286840F417
:1007C00080302860606890B1FFF770FE06460AE04E
:1007D000286840F480202860F0E700BFFFF766FE3D
:1007E000801B642873D828688003F7D50CE0FFF7D6
:1007F0005DFE064605E000BFFFF758FE801B64283B
:10080000F0D828688003F7D420789A4E80074FF0FC
:1008100001094FF0000839D5686810F00C0F07D0B7
:100820006868C0F38100022809D16868C00306D453
:100830002868800714D52069012808D110E02069B4
:10084000B0B1C6F80090FFF731FE074605E00AE1B7
:10085000FFF72CFEC01B0228C4D828688007F7D5F4
:100860002868616920F0F80040EAC10028600DE0C6
:10087000C6F80080FFF71AFE074604E0FFF716FEF1
:10088000C01B022823D828688007F7D420780007E7
:100890002CD57948A169D9B1C0F80090FFF706FEC0
:1008A000074604E0FFF702FEC01B02280FD8686A63
:1008B0008007F7D571484FF4FA510068B0FBF1F0AA
:1008C000009000BF0098411E0091FAD20EE080E037
:1008D000C0F80080FFF7EAFD074604E0FFF7E6FDF9
:1008E000C01B022875D8686A8007F7D420784007B3
:1008F00060D5E8690027C00008D4E86940F080505E
:10090000E861E869012700F0805000905C480168C8
:10091000C90513D40168834641F480710160FFF773
:10092000C5FD824606E000BFFFF7C0FDA0EB0A0050
:1009300064284ED8DBF80000C005F5D5E068012832
:100940000AD008B1052813D0286A20F001002862D7
:10095000286A20F0040002E0286A40F001002862C2
:10096000E06841F2883B98B1FFF7A0FD82460BE0BA
:10097000286A40F004002862EEE700BFFFF796FD0A
:10098000A0EB0A0159455AD8286A8007F6D50CE031
:10099000FFF78CFD824605E0FFF788FDA0EB0A011A
:1009A00059454CD8286A8007F6D41FB1E86920F071
:1009B0008050E861E06988B36968C1F38101022968
:1009C00044D00228C6F8608004D0FFF76FFD0446CB
:1009D00038E034E0FFF76AFD074604E0FFF766FD04
:1009E000C01B02282BD828688001F7D4206AB0F5F4
:1009F000803F05D16868A16820F400300843686032
:100A0000D4E908010843696821F474110843686057
:100A1000C6F86090FFF74AFD044606E025E000BFF7
:100A2000FFF744FD001B022809D828688001F7D58C
:100A30001BE000BFFFF73AFD001B022802D903208C
:100A4000BDE8F88F28688001F4D40EE00128F7D0C3
:100A50006868226A00F48031914204D1616A00F42E
:100A60007010884201D00120EAE70020E8E700008A
:100A70000010024000004242800442422000002058
:100A80000070004010B5401EB0F1807F01D30120FE
:100A900010BD4FF0E02460610F21601700F0D4FB1F
:100AA0000020A06107202061002010BD10B590F843
:100AB0003C20012A22D0012280F83C20CA688C68A0
:100AC00022F4407222434C6822F4806222430C6874
:100AD00022F4006222430C6922F4805222434C69C2
:100AE00022F400522243C969002322F480420A43BF
:100AF00001684A6480F83C30002010BD022010BD1F
:100B000070B590F83C20012A26D0012480F83C40A2
:100B1000022280F83D2003685A689D6822F0700622
:100B20000A6832435A600D4B02689A4208D0B2F10B
:100B3000804F05D00A4B9A4202D00A4B9A4204D108
:100B4000496825F080031943916080F83D400021F9
:100B500080F83C10084670BD022070BD002C01409A
:100B6000000400400008004010B5040003D094F8D1
:100B70003D0010B107E0012010BD002084F83C00CA
:100B8000204600F01FF8022084F83D00211D206857
:100B900000F03EFA012084F8460084F83E0084F814
:100BA0003F0084F8400084F8410084F8420084F853
:100BB000430084F8440084F8450084F83D00002098
:100BC00010BD000008B500680649884208D10648F3
:100BD000816941F400618161806900F400600090E6
:100BE00008BD0000002C01400010024070B5044612
:100BF00090F83C00012817D0012584F83C500220D1
:100C000084F83D002068826822F0770222F47F4257
:100C100082600868502830D00DDC20284DD005DCDB
:100C200098B310283BD148E0022070BD302844D052
:100C3000402834D139E0602828D0702806D0B0F59B
:100C4000805F2CD0B0F5005F29D10AE0CB68D1E9F4
:100C50000121206800F01FFA2068816841F07701C7
:100C600009E0CB68D1E90121206800F014FA20687E
:100C7000816841F48041816011E0CA684968206858
:100C800000F0BEFA5021206807E016E0CA68496803
:100C9000206800F0C6FA6021206800F006FA84F8A7
:100CA0003D50002084F83C0070BDCA684968206847
:100CB00000F0A6FA40212068EFE7226801461046BE
:100CC000EBE7000000B585B0002100910191029191
:100CD000039100680B49884212D10B48816941F0A9
:100CE000040181618069694600F0040004904FF4BA
:100CF000007000900220019003900448FFF7DCFA96
:100D000005B000BD002C0140001002400008014069
:100D100070B5044690F83C000D4601280AD0012029
:100D200084F83C0042B1042A18D0082A2AD00C2AA0
:100D30004DD139E0022070BD206800F0BFF9206875
:100D4000816941F0080181612068816921F0040115
:100D50008161206881692A69114311E0206800F0EF
:100D6000D5F92068816941F4006181612068816959
:100D700021F480618161206881692A6941EA022148
:100D8000816124E0206800F0EDF92068C16941F03C
:100D90000801C1612068C16921F00401C1612068B6
:100DA000C1692A69114311E0206800F007FA206840
:100DB000C16941F40061C1612068C16921F48061A9
:100DC000C1612068C1692A6941EA0221C16100202C
:100DD00084F83C0070BD10B5040003D094F83D00C9
:100DE00010B107E0012010BD002084F83C0020462F
:100DF00000F01EF8022084F83D00211D206800F05C
:100E000007F9012084F8460084F83E0084F83F008A
:100E100084F8400084F8410084F8420084F84300DC
:100E200084F8440084F8450084F83D00002010BD9B
:100E30007047000010B50446022249B104290ED0C3
:100E4000082913D094F84100012816D0012010BDC4
:100E500094F83E000128F9D184F83E200FE094F880
:100E60003F000128F2D184F83F2008E094F84000C8
:100E70000128EBD184F8402001E084F841200122D0
:100E8000206800F0FBF80F492068884203D1426CCB
:100E900042F4004242642068884208D0B0F1804F9A
:100EA00005D00949884202D00849884204D18168A6
:100EB00001F00701062903D0016841F0010101603A
:100EC000002010BD002C014000040040000800403C
:100ED000FEE7000010B596B000240F941094119412
:100EE000129413941C2108A81494FFF76DF9202183
:100EF0006846FFF769F929482749016040F2072150
:100F0000C0E9011442F21071C0E903144461846124
:100F1000FFF72AFE08B172B6FEE74FF480500F903B
:100F20000FA91E48FFF762FE08B172B6FEE71B4824
:100F3000FFF751FF08B172B6FEE7139413A91748E3
:100F40001494FFF7DDFD08B172B6FEE76020CDE92D
:100F500008040A940B940C940D94042208A90F48D9
:100F60000E94FFF7D5FE08B172B6FEE700944FF479
:100F70000050CDE904400294019403946946074867
:100F80000794FFF793FD08B172B6FEE70348FFF739
:100F900099FE16B010BD0000002C01402400002076
:100FA000FEE7FEE770477047FFF786BA10B590B0CE
:100FB00028216846FFF708F914210AA8FFF704F969
:100FC00001210804CDE9001042000292022404919C
:100FD000CDE907404FF4301009906846FFF7C2FB97
:100FE00008B172B6FEE70F20CDE90A0400204FF4E5
:100FF0008061CDE90C010E9002210AA8FFF7E6FA04
:10100000002801D072B6FEE710B010BD7047000096
:10101000F0B50268164B174C174D4FF080479842B9
:1010200005D0B84203D0A04201D0A84203D122F09B
:1010300070064A683243984205D0B84203D0A042B5
:1010400001D0A84203D122F44074CA6822434C69FB
:1010500022F08002224302608A68C2620A688262C9
:10106000984201D10969016301214161F0BD00008D
:10107000002C0140000400400008004010B501F0C1
:101080001F030121046A99408C430462016A9A405B
:101090001143016210BD10B5846842EA032224F4B2
:1010A0007F440A432243826010BD826822F07002AE
:1010B0000A4342F0070181607047000030B5026AC0
:1010C00022F001020262026A4368846924F0730517
:1010D0000C682C4322F002058A682A430A4DA84274
:1010E0000BD122F00805CA6823F440732A434D69E6
:1010F00022F004021D438B692B43436084614968DD
:101100004163026230BD0000002C014030B5026A2C
:1011100022F010020262026A436884690D6824F4B6
:10112000E64444EA05248D6822F0200242EA0512D2
:101130000B4DA8420ED1CD6822F0800242EA051282
:101140004D6923F4406343EA85038D6922F0400230
:1011500043EA85034360846149688163026230BD6C
:10116000002C014030B5026A22F480720262036AE8
:101170004268C46923F4007324F073050C682C439F
:101180008D6843EA05230C4DA8420ED1CD6823F4A7
:10119000006343EA05234D6922F4405242EA0512F6
:1011A0008D6923F4806342EA05124260C461496894
:1011B000C163036230BD0000002C014030B5026AFB
:1011C00022F480520262046A4268C3690D6823F403
:1011D000E64343EA05238D6824F4005444EA0534C9
:1011E000064DA84204D14D6922F4804242EA85129C
:1011F0004260C36149680164046230BD002C014053
:1012000010B5036A046A24F001040462846924F0BE
:10121000F00444EA021423F00A020A4384610262E1
:1012200010BD10B5036A23F0100303628369046ADA
:1012300023F4704343EA023224F0A00343EA01118D
:101240008261016210BDFEE70907090E002804DB78
:1012500000F1E02080F80014704700F00F0000F16A
:10126000E02080F8141D70472DE9F041234E012243
:1012700011463046FFF715F9214D002029684862D4
:101280002868416A0A29FCD3002201213046FFF771
:1012900008F9FFF70BF91B4C4FF48067A060394643
:1012A0003046FFF7F9F828B9FFF700F9A1680A31CD
:1012B0008842F4D32868406A2060FFF7F7F8A060FE
:1012C00039463046FFF7E8F828B1FFF7EFF8A16894
:1012D00032318842F4D32868406A60602168401A3D
:1012E00000F0ADF8084A094B00F0BCF84FF0FF32AF
:1012F00000F0E8F9BDE8F04100F072B8000C0140E0
:1013000024000020080000209CC420B07268A13F87
:1013100008B5FFF7D9F8FFF749FE2A48816941F07F
:1013200020018161816901F020010091816941F012
:1013300004018161806900F004000090FFF7CAFD9C
:1013400004212148FFF776FD1F4D19271F4C42F25B
:10135000107800262068FFF787FF032802DB60680B
:1013600028B166602068FFF77FFF606814E0286896
:1013700087634046FEF78EFF286886636068401CDE
:101380006060EDE7286887634046FEF783FF2868C2
:1013900086636068401C60600028F3D06660206847
:1013A000FFF762FF606809E0286887634046FEF740
:1013B00071FF286886636068401C60600028F3D075
:1013C0006660C7E7001002402400002000000020F3
:1013D00002494FF0000000F043B900BF0000F87F61
:1013E0004FEA41034FEA5353A3F58063D3F11E0341
:1013F000C8BFD3F1210C0CDD4FF0004242EAC122FC
:1014000042EA505232FA03FC8CEAE17CACEBE17028
:101410007047102BC4BF0020704703F5787CBCF1E7
:10142000FF3F04D06FF0004282EA2100704770B5A0
:1014300000F0C2F84992248000207047F2E7B0FA29
:1014400080F310FA03F10AD0C3F11D0303F58063A2
:101450004FEA41504FEA035202EBD12170474FF05F
:1014600000007047DFF848C170B51CEA111E1EBFAE
:101470001CEA13159EEA0C0F95EA0C0F00F06F8022
:1014800081EA030423EA4C134EEAD47E21EA4C118C
:1014900041F4801143F48013AE44A1FB024CA0FB45
:1014A0000365AEF17F7E361955EB0C05A1FB034CAD
:1014B0004CF10003A0FB021C16EB0C06654153F136
:1014C0000003094218BF46F0010613F4007F0BD158
:1014D0004FEA03314FEA0530340341EA155140EA3F
:1014E00016506FF003020AE04FEAC3214FEAC5200D
:1014F000F40241EA555140EA56506FF0020202EB05
:101500002E4201EB025585EACE710AD05FEA440C07
:1015100018BF24F0004450F1000041F1000120EA1E
:10152000D47040F2FE7C624500D270BDA84214BF68
:101530004FF080444FF04044002E08BF0024BEF11D
:10154000806FA8BFA1F1C041BDE8704080F28280E9
:101550004FF0000001F1C04101F0004170479EEAE8
:101560000C0F0CEA131518BF95EA0C0F06D04FF0BC
:10157000000081EA030E0EF0004170BD00F01CF87F
:101580008900013E00F007B800F009B84FEA430CAB
:101590005FEA5C5C08D081EA030100F05BB84FEAC7
:1015A000410C5FEA5C5CF6D14FF0000001497047E6
:1015B0000000FF070000F87F0EF1020E2EF0030E70
:1015C0005EF8046B364205D4012A43EB030515F59A
:1015D000001F12D8012841EB010C1CF5001F0CD88C
:1015E0000ED14FEAD17C15F5001F0CEB4C0C0CF121
:1015F000020C08BF4CEBD37C04E04FF0080C01E078
:101600004FEAD37C0CEB4C0526FA05F606F00706EC
:10161000B6F1040C06D20EEB860CBDE870404CF01F
:10162000010C6047DFE80CF0090B02024FF00041AB
:101630004FF00000A1F5002170BD194610460128A9
:1016400051EB010418BFD4F5001484BF002001F051
:10165000004170BD0808A0F500114FEA3101704744
:101660000CF00F03092B08BF082000F059800A2B4B
:101670000BD0082B18BF704708BF1CF0400F0AD0D2
:101680004FF000004FF0000170471CF0400F18BFF2
:101690004FF0004070471CF0100F08D020F070434E
:1016A00000F07F4242EAD3014FEA4370704700F0F6
:1016B000604021F07F4242EA000201F07F4040EAB0
:1016C000727070474FF0FF0C4CF4E06C1CEA115341
:1016D0001CBF9CEA030C9445C2BFDA4201EB0251E5
:1016E0007047002B0DD0BCF1000F0FD0002A01F085
:1016F0000041A4BF41F0E04141F07F614FF00000A4
:10170000704701F000414FF00000704750EA01338C
:101710004FF09B0C18BF4CF0806C7FF459AE7047B3
:101720001CF4801F11D01CF4E02F03D06FEACC31E1
:10173000490070474FF04050EFF3008222F07042B2
:1017400042EA000282F3008870474FF000007047C1
:101750000000000000000000010203040607080961
:101760008017000800000020240000002801000865
:10177000A417000824000020AC0600004401000863
:101780000000000000000000000000000000000059
:101790000000000001000000100000000000000038
:0417A0000024F4002D
:04000005080000ED02
:00000001FF
