:020000040800F2
:10000000C808002089010008772E0008A91E0008F2
:10001000752E00088F020008D5330008000000008C
:10002000000000000000000000000000712F000828
:100030009102000800000000792E0008732F0008CC
:10004000A3010008A3010008A3010008A301000800
:10005000A3010008A3010008A3010008A3010008F0
:10006000A3010008A3010008A3010008A3010008E0
:10007000A3010008A3010008A3010008A3010008D0
:10008000A3010008A3010008A3010008A3010008C0
:10009000A3010008A3010008A3010008A3010008B0
:1000A000A3010008A3010008A3010008A3010008A0
:1000B000D92F0008A3010008A3010008B91E0008F9
:1000C000AD1E0008A3010008A3010008A301000859
:1000D0007D2E0008C9330008A3010008A301000811
:1000E000A3010008A3010008A301000800F002F822
:1000F00000F03AF80AA090E8000C82448344AAF188
:100100000107DA4501D100F02FF8AFF2090EBAE885
:100110000F0013F0010F18BFFB1A43F0010318473B
:100120003435000054350000103A24BF78C878C137
:10013000FAD8520724BF30C830C144BF04680C60ED
:10014000704700000023002400250026103A28BF35
:1001500078C1FBD8520728BF30C148BF0B60704739
:100160001FB51FBD10B510BD00F058F81146FFF7C0
:10017000F7FF03F0D3F900F076F803B4FFF7F2FFCE
:1001800003BC00F07DF8000009488047094800479B
:10019000FEE7FEE7FEE7FEE7FEE7FEE7FEE7FEE737
:1001A000FEE7FEE704480549054A064B7047000094
:1001B000D52F0008ED000008C8020020C808002064
:1001C000C8040020C80400204FF0000200B5134608
:1001D00094469646203922BFA0E80C50A0E80C5067
:1001E000B1F12001BFF4F7AF090728BFA0E80C5018
:1001F00048BF0CC05DF804EB890028BF40F8042B11
:1002000008BF704748BF20F8022B11F0804F18BF7D
:1002100000F8012B7047704770477047754600F033
:100220002BF8AE4605006946534620F00700854688
:1002300018B020B5FFF7B6FFBDE820404FF000062C
:100240004FF000074FF000084FF0000B21F00701BE
:10025000AC46ACE8C009ACE8C009ACE8C009ACE801
:10026000C0098D46704710B50446AFF300802046A4
:10027000BDE81040FFF781BF0048704768020020CA
:1002800001491820ABBEFEE7260002007047FEE7DA
:10029000704710B590F821100022022905D00421E2
:1002A000816380F82020012010BD01680B6823F0D5
:1002B0000E030B6001680B6823F001030B6090F8DC
:1002C0004030C46B012101FA03F3636080F8211010
:1002D00080F82020104610BD10B590F821100024A1
:1002E000022903D00421816301243DE001680A68EA
:1002F00022F00E020A6001680A6822F001020A6018
:100300001A4A0168914201D1012121E0174A1432B1
:10031000914201D110211BE0144A2832914201D1AF
:10032000891515E0114A3C32914201D189140FE040
:100330000E4A5032914202D14FF4803108E00B4A0C
:100340006432914202D14FF4801101E04FF080718C
:10035000064A083A5160012180F82110002180F8F6
:100360002010416B01B18847204610BD08000240B3
:1003700090F821007047000070B5044600F004F9C1
:100380000546601C02D004480078044400F0FCF8E4
:10039000401BA042FAD370BD000000202DE9F84FA9
:1003A000DFF8B891002409F1040A0AF1040B23468E
:1003B0000F270BF1040EC9E00125A5402A40AA42EF
:1003C0007DD1674ED1F804C0ACEB0608B44532D0FD
:1003D00014DCBCF1030F3AD009DCBCF1000F2AD0C9
:1003E000BCF1010F1CD0BCF1020F31D11DE0BCF1FA
:1003F000110F17D0BCF1120F2AD119E0B8F5881FE0
:1004000019D006DCB8F5803F15D0B8F5801F1FD194
:1004100011E0B8F5001F0ED0B8F5041F18D10AE09E
:10042000CB6815E0CB681B1D12E0CB6808330FE0EA
:10043000CB680C330CE08B682BB1012B4FF0080319
:1004400003D0456104E0042302E0056100E00023DD
:10045000FF2A01D8064601E000F104064FEA8405B0
:1004600001D9A5F12005D6F8008007FA05FC28EA95
:100470000C0803FA05F548EA0508C6F800804D683F
:10048000ED0062D5374DAE6946F00106AE61AD694B
:1004900024F0030605F001050095334D06EB050C2D
:1004A000DCF80850A607360F07FA06F825EA080513
:1004B000DFF8B880404503D14FF0000817E044E072
:1004C000DFF8AC80404502D14FF001080FE0DFF8C3
:1004D000A480404502D14FF0020808E0DFF8988080
:1004E000404502D14FF0030801E04FF0040808FA3C
:1004F00006F848EA0508CCF808804D68D9F800608D
:10050000ED034D4601D5164300E096432E604D683D
:10051000DAF80060AD03554601D5164300E0964376
:100520002E604D68DBF80060ED025D4601D5164394
:1005300000E096432E604D68DEF80060AD0275461F
:1005400001D5164300E096432E60641C0D682A46D0
:10055000E5407FF431AFBDE8F88F000000040140B2
:10056000000011100010024000000140000801408E
:10057000000C014000100140001401400AB101616B
:1005800070470904FBE700000148806870470000DD
:1005900000000020704770472DE9F04101680446D3
:1005A0004A694E6890F83E000025D743FA050BD4FF
:1005B000F243D20508D46FF4807201254A612168A4
:1005C0000A6842F400420A60B90508D4F143C9053B
:1005D00005D422686FF4007145F002055161790578
:1005E00025D4F143C90522D4638D94F83D10226BC4
:1005F000202808D13BB9212910D029290ED028293B
:1006000001D1212A0AD022686FF48061516145F03E
:100610000405102806D0402804D008E0204602F047
:10062000A1F804E02068016841F400710160380518
:1006300008D4F043C00505D421686FF4006045F08C
:1006400008054861002D07D0206C2843206420460F
:10065000BDE8F04101F094BCBDE8F0812DE9F04720
:10066000026800215368C66A90F83E4090F83D50F9
:10067000102C12D0402C10D0046C002C7DD054696A
:10068000E443A6077AD4DE43B60577D4036C03B1FE
:100690009169BDE8F04702F041B8976951694FF49C
:1006A0002A0CC9435FEAC1784FF02A4904D0664555
:1006B0002AD04E4528D010E0DE43B6050DD4C16ADD
:1006C000614501D1012103E0C16A494501D10821F9
:1006D000C162BDE8F04701F08BBF0E0716D4DE43C0
:1006E000B60513D4416CC9B21161416B09B1896A75
:1006F00029B9816B002907D0896A002904D00068D4
:10070000416841F400614160BDE8F0878E0706D47E
:10071000DE43B60503D4BDE8F04701F0BDBEFE439D
:10072000526876074FEA02521DD4002AECDB0A0613
:1007300008D4DA43520505D4490705D5BDE8F0478A
:1007400001F04EBE4907DFD4D9438905DCD4212D01
:1007500005D0402CD8D1BDE8F04701F08FBFBDE8EF
:10076000F04701F0FBBD002ACEDB4A060BD4DA438A
:10077000520508D4490708D501E00DE00EE0BDE8B8
:10078000F04701F029BD4907BED4D9438905BBD440
:10079000BDE8F04701F0B7BC916970E7E10606D407
:1007A000D943890503D4BDE8F04702F01DB82821DC
:1007B000212D27D0292D25D0650655D4DD436D0583
:1007C00052D4640752D590F83D30448D002C9BD014
:1007D0001269446A2270426A521C4262428D521E61
:1007E0004285428D002A8FD12A2B8DD10268536811
:1007F00023F4806353602222026380F83D1000F0EE
:10080000E5F981E7250623D4DD436D0520D464078F
:1008100020D590F83D30448D002CF2D0446A2478E5
:100820001461426A521C4262428D521E4285428DC0
:10083000002AE6D1292BE4D10268536823F48063AF
:1008400053602122026380F83D1000F0C0F95BE79D
:100850006107D6D4D9438905D3D4418D0029D0D09E
:10086000416A097811610AE06107CAD4D943890550
:10087000C7D4418D0029C4D01169426A1170416A00
:10088000491C4162418D491E41853DE7704700008A
:1008900070B5040025D094F83D00002520B984F8F7
:1008A0003C50204600F054F9242084F83D00206894
:1008B000016821F0010101602068016841F40041F4
:1008C00001602068016821F40041016000F0AEFA87
:1008D0004D4A6168914201D84C4900E04C49884238
:1008E00001D2012070BD4B492368B0FBF1F15E6875
:1008F00026F03F060E435E606368934206D94FF4CC
:10090000967359434FF47A73B1FBF3F12368491C92
:100910001E6A26F03F06314319626168914210D881
:100920004900401EB0FBF1F2521CC2F30B02042A34
:1009300001D2042022E0B0FBF1F0401CC0F30B0018
:100940001CE0A268F2B301EBC10303EB0116431EE6
:10095000B3FBF6F35B1C43F480431B0549D092B311
:1009600001EBC10202EB0111401EB0FBF1F0401C93
:10097000C0F30B0040F4804040F400402168CA6995
:100980004CF6FF739A431043C861D4E90710014342
:100990002068026822F0C00211430160D4E903011B
:1009A00001432068826848F2FF339A431143816013
:1009B000D4E9050108432168CA6822F0FF02104308
:1009C000C86001E00EE016E02068016841F0010116
:1009D00001602564202084F83D00256384F83E50A2
:1009E000002070BD01EB4106431EB3FBF6F35B1C18
:1009F000B3E70120C2E701EB4101401EB0FBF1F07B
:100A0000401CC0F30B00B7E7A086010080841E00E5
:100A100000093D0040420F007047704770470000DA
:100A20002DE9F84F1F4690468A460446DDF8289087
:100A3000FFF7AAFD054694F83D0020287FD1192331
:100A4000012240492046009501F0A2FF002876D1FE
:100A500094F83C00012872D0012084F83C00206802
:100A60000168C90703D1016841F0010101602068F4
:100A7000016821F400610160212084F83D0010200C
:100A800084F83E0000262664C4F824806785608DC3
:100A900020852D48E0622B464A465146204601F00B
:100AA0000FFC90B9206841698069009036E02A46C1
:100AB0004946204601F0EBFF50B1206C042804D1D8
:100AC0002068016841F4007101600120BDE8F88FE1
:100AD000606A216800780861606A401C6062618D0C
:100AE000491E6185218D491E89B22185226853697D
:100AF000DB435B070BD451B100781061606A401C86
:100B00006062608D401E6085208D401E20852A46D3
:100B10004946204601F016FF0028CED1208D00283E
:100B2000C5D154F83D0B016841F4007101602020EB
:100B300004F81E09E67766770020C7E7FFE7022082
:100B4000C4E70000020010000000FFFF704770477C
:100B500010B586B0002100910191029103910068C7
:100B6000174988422AD1174CA06940F00800A061BB
:100B7000A069694600F008000490C020009012208F
:100B80000190032003901048FFF708FCE06940F44F
:100B90000010E061E069002200F4001004901146AA
:100BA0001F2000F07BF81F2000F06AF80022114699
:100BB000202000F073F8202000F062F806B010BD8D
:100BC0000054004000100240000C01407047704784
:100BD000024881680278114481607047000000205B
:100BE000074810B5016841F010010160032000F0D2
:100BF00075F80F2000F006F800F024F8002010BD72
:100C00000020024070B50D4D04464FF47A712878EB
:100C1000B1FBF0F00A490968B1FBF0F000F0ADFC5F
:100C200048B9102C07D200222146501E00F036F899
:100C300000206C6070BD012070BD0000000000202D
:100C40000C0000200C4808B5816941F00101816168
:100C5000816901F001010091C16941F08051C161D8
:100C6000C06900F0805000900448416821F0E061C4
:100C700041F00071416008BD0010024000000140D9
:100C8000002809DB00F01F0201219140400980008B
:100C900000F1E020C0F8001170470000F0B40E4BE6
:100CA0001B680C46C3F30223C3F10705042D00D9CA
:100CB0000425191D072901D2002300E0DB1E0126AF
:100CC00006FA05F1491E214099409E40761E1640C5
:100CD0003143F0BC02F07FBB0CED00E0064900F0B0
:100CE000070208684FF6FF03184040EA0220034A53
:100CF00010430860704700000CED00E00000FA05AA
:100D00002DE9F0470F46050061D0434E306800F0F2
:100D10000700B84209D2306820F00700384330603D
:100D2000306800F00700B84251D128683B4C810779
:100D300012D5400703D5606840F4E0606060287811
:100D4000000703D5606840F4605060606068A9687F
:100D500020F0F000084360602878C00728D0686859
:100D6000012810D02168022810D0890700292EDA26
:100D7000616821F0030101436160FFF705FC8046D3
:100D800041F288390DE021688903EFE78901EDE739
:100D9000FFF7FAFBA0EB0801494502D90320BDE8A3
:100DA000F0876068696800F00C00B0EB810FEFD14C
:100DB000306800F00700B8420BD9306820F0070017
:100DC00038433060306800F00700B84201D001209D
:100DD000E5E72878400705D56068E96820F4E06019
:100DE000084360602878000706D56068296920F408
:100DF000605040EAC100606000F038F86168084A5D
:100E0000C1F30311515CC8400649086006480068F8
:100E1000FFF7F8FE0020C2E7002002400010024069
:100E20003C3600080C00002004000020044805495E
:100E300000684968044AC1F30221515CC840704708
:100E40000C000020001002404C3600080448054900
:100E500000684968044AC1F3C221515CC840704728
:100E60000C000020001002404C36000812A185B092
:100E70000FC98DE80F0014A0144A0068049051684F
:100E8000134801F00C03042B10D0082B0ED1C1F332
:100E90008343C9031DF803000AD5516804AAC1F3AE
:100EA0004041515C0A4A5043B0FBF1F005B0704735
:100EB00008494843FAE70000020304050607080949
:100EC0000A0B0C0D0E0F1010010200000010024062
:100ED00000127A0000093D002DE9F84F040070D09F
:100EE0002078C04DC00749D06868C0F38100012850
:100EF00007D06868C0F38100022809D16868C00380
:100F000006D52868800339D560680028E7D035E029
:100F10006068B0F5803F0BD010B1B0F5A02F11D0B4
:100F2000286820F480302860286820F4802002E0BF
:100F3000286840F480302860606890B1FFF724FB97
:100F400006460AE0286840F480202860F0E700BFE9
:100F5000FFF71AFB801B642873D828688003F7D535
:100F60000CE0FFF711FB064605E000BFFFF70CFBA6
:100F7000801B6428F0D828688003F7D420789A4E24
:100F800080074FF001094FF0000839D5686810F06C
:100F90000C0F07D06868C0F38100022809D1686887
:100FA000C00306D42868800714D52069012808D119
:100FB00010E02069B0B1C6F80090FFF7E5FA0746E7
:100FC00005E00AE1FFF7E0FAC01B0228C4D8286850
:100FD0008007F7D52868616920F0F80040EAC10071
:100FE00028600DE0C6F80080FFF7CEFA074604E05F
:100FF000FFF7CAFAC01B022823D828688007F7D455
:10100000207800072CD57948A169D9B1C0F80090A3
:10101000FFF7BAFA074604E0FFF7B6FAC01B02284A
:101020000FD8686A8007F7D571484FF4FA51006805
:10103000B0FBF1F0009000BF0098411E0091FAD281
:101040000EE080E0C0F80080FFF79EFA074604E05B
:10105000FFF79AFAC01B022875D8686A8007F7D490
:101060002078400760D5E8690027C00008D4E86907
:1010700040F08050E861E869012700F0805000905E
:101080005C480168C90513D40168834641F4807146
:101090000160FFF779FA824606E000BFFFF774FAB5
:1010A000A0EB0A0064284ED8DBF80000C005F5D597
:1010B000E06801280AD008B1052813D0286A20F07A
:1010C00001002862286A20F0040002E0286A40F04B
:1010D00001002862E06841F2883B98B1FFF754FABA
:1010E00082460BE0286A40F004002862EEE700BF69
:1010F000FFF74AFAA0EB0A0159455AD8286A800737
:10110000F6D50CE0FFF740FA824605E0FFF73CFA1F
:10111000A0EB0A0159454CD8286A8007F6D41FB1C4
:10112000E86920F08050E861E06988B36968C1F33C
:101130008101022944D00228C6F8608004D0FFF75C
:1011400023FA044638E034E0FFF71EFA074604E0CD
:10115000FFF71AFAC01B02282BD828688001F7D4A1
:10116000206AB0F5803F05D16868A16820F400309E
:1011700008436860D4E908010843696821F47411E0
:1011800008436860C6F86090FFF7FEF9044606E081
:1011900025E000BFFFF7F8F9001B022809D82868EE
:1011A0008001F7D51BE000BFFFF7EEF9001B022816
:1011B00002D90320BDE8F88F28688001F4D40EE03E
:1011C0000128F7D06868226A00F48031914204D186
:1011D000616A00F47010884201D00120EAE7002023
:1011E000E8E7000000100240000042428004424252
:1011F0000C000020007000407047000038B5044625
:10120000006842688168C9434B0606D5CB0704D104
:10121000D3435B0601D4216C05E08B0708D4D3438C
:101220001B0605D4616C01B02046BDE8304008477C
:101230008B0601D54B0646D4D3439B0643D44B06BD
:101240000AD494F85130032B3ED0636D43F004036D
:101250006365C36883680093890609D4616D41F0B2
:101260000101616581680091016821F04001016020
:10127000606D002827D02068416821F0E0014160BE
:10128000012084F85100900722D02068416821F0A5
:1012900003014160104DE06C40B14563E06CFFF725
:1012A0001BF818B1606D40F040006065A06C00282C
:1012B00009D04563A06CFFF70FF8002803D0606DDC
:1012C00040F04000606538BDC1688068009038BD5E
:1012D0002046FFF791FF38BD892E000870B5040045
:1012E00009D0606A002540B125616561A56294F866
:1012F000510040B10CE0012070BD6068B0F5827F04
:10130000F4D0E561F2E784F85050204600F040F850
:10131000022084F851002068016821F0400101603A
:10132000A088218900F4827001F404410843A18956
:1013300001F400610843217C01F002010843217D92
:1013400001F001010843218B01F400710843217F62
:1013500001F03801084394F8201001F0800108439F
:10136000218D01F40051084321680860A06904211F
:1013700001EA1040216848602068C16921F40061D9
:10138000C1616565012084F85100002070BD000036
:1013900030B585B000240094019402940394006851
:1013A000194988422DD11948C16941F48041C16170
:1013B000C16901F480410491816941F008018161B2
:1013C0008069134D00F0080004904FF42040009015
:1013D000022001900320039069462846FEF7DEFFB5
:1013E0004FF48040CDE90004694628460294FEF798
:1013F000D5FF002211462420FFF750FC2420FFF7E0
:101400003FFC05B030BD0000003800400010024035
:10141000000C01402DE9F84F044690F850000027D9
:101420001D461646894601280DD04FF0010B84F861
:1014300050B0FFF7A9F8804694F85100BA46012849
:1014400004D0022793E00220BDE8F88FB9F1000F25
:1014500073D0002E71D0032084F85100C4F854A03A
:10146000C4F83090A686E686C4F838A0A4F83CA05C
:10147000A4F83EA0C4F844A0C4F840A0A068B0F509
:10148000004F09D12068016821F040010160206807
:10149000016841F48041016020680168490603D475
:1014A000016841F040010160E068B0F5006F6068DC
:1014B00003D030B3012E24D041E008B1012E1CD15D
:1014C000206B21680088C86006E020688168890771
:1014D00009D5216B0988C160206B801C2063E08ED8
:1014E000401EE08609E0FFF74FF8A0EB0800A84295
:1014F00002D3681C01D031E07DB3E08E0028E4D136
:1015000020E0206B21680078087306E0206881687D
:10151000890709D5216B09780173206B401C206372
:10152000E08E401EE0860AE0FFF72EF8A0EB0800F0
:10153000A84203D3681C02D010E017E06DB1E08E22
:101540000028E3D142462946204601F0A5FC08B117
:1015500020206065A06818B106E0FFE7032706E0D9
:101560002068C16880680090606D00B1012784F830
:1015700051B084F850A0384666E710B5401EB0F16F
:10158000807F01D3012010BD4FF0E02460610F2166
:10159000601701F020FF0020A061072020610020DB
:1015A00010BD70477047000070B590F83C20012ACC
:1015B00026D0012480F83C40022280F83D200368B8
:1015C0005A689D6822F070060A6832435A600D4BD3
:1015D00002689A4208D0B2F1804F05D00A4B9A4275
:1015E00002D00A4B9A4204D1496825F0800319437E
:1015F000916080F83D40002180F83C10084670BDA5
:10160000022070BD002C0140000400400008004092
:1016100010B5040003D094F83D0010B107E001209C
:1016200010BD002084F83C00204600F01FF8022086
:1016300084F83D00211D206801F0D4FC012084F8CD
:10164000460084F83E0084F83F0084F8400084F8A7
:10165000410084F8420084F8430084F8440084F890
:10166000450084F83D00002010BD000008B51C4A6C
:1016700001681C48914207D1816941F40061816190
:10168000806900F400600CE0B1F1804F0BD0164A85
:1016900091421AD1C16941F00201C161C06900F0F3
:1016A0000200009008BDC16941F00101C161C0693B
:1016B000002200F00100009011461C20FFF7EEFA16
:1016C000BDE808401C20FFF7DBBA084A9142E9D187
:1016D000C16941F00401C161C06900F00400E0E7A4
:1016E000002C0140001002400004004000080040AF
:1016F00090F83D10012901D001207047022180F8A7
:101700003D1000680B49884208D0B0F1804F05D0E9
:101710000949884202D00949884204D1816801F010
:101720000701062903D0016841F001010160002092
:1017300070470000002C01400004004000080040F9
:1017400070B5044690F83C00012817D0012584F8B4
:101750003C50022084F83D002068826822F0770225
:1017600022F47F4282600868502830D00DDC2028A7
:101770004DD005DC98B310283BD148E0022070BD65
:10178000302844D0402834D139E0602828D070284F
:1017900006D0B0F5805F2CD0B0F5005F29D10AE00B
:1017A000CB68D1E90121206801F05FFC20688168E5
:1017B00041F0770109E0CB68D1E90121206801F00F
:1017C00054FC2068816841F48041816011E0CA685E
:1017D0004968206801F0FEFC5021206807E016E00F
:1017E000CA684968206801F006FD6021206801F0A0
:1017F00046FC84F83D50002084F83C0070BDCA6867
:101800004968206801F0E6FC40212068EFE7226883
:1018100001461046EBE7704770B504460068016961
:101820004FF00005C943890715D4C168C94389072A
:1018300011D4E91E016101202077206880698007AA
:10184000204602D0FFF7E7FF04E000F0CDF8204685
:1018500000F05CF9257720680169C943490717D46E
:10186000C168C943490713D46FF004010161022024
:1018700020772068806910F4407F204602D0FFF76F
:10188000CAFF04E000F0B0F8204600F03FF92577E9
:1018900020680169C943090716D4C168C94309070B
:1018A00012D46FF008010161042020772068C0691C
:1018B0008007204602D0FFF7AEFF04E000F094F866
:1018C000204600F023F9257720680169C943C9063D
:1018D00017D4C168C943C90613D46FF01001016160
:1018E000082020772068C06910F4407F204602D08D
:1018F000FFF791FF04E000F077F8204600F006F9CA
:10190000257720680169C943C90708D1C168C9435F
:10191000C90704D1891E0161204600F047F92068FB
:101920000169C943090609D4C168C943090605D438
:101930006FF0800101612046FFF733FE20680169E6
:10194000C943490609D4C168C943490605D46FF0A3
:1019500040010161204600F02AF920680169C9436D
:1019600089060BD4C168C943890607D46FF02001EA
:1019700001612046BDE87040FFF714BE70BD000055
:1019800010B586B000210091019102910391036886
:10199000124A02211248B3F1804F13D0114CA342D6
:1019A0000ED1936943F0040393619269039102F0AD
:1019B000040204928022CDE900216946FEF7EEFC84
:1019C00006B010BD936943F00403936192690091DE
:1019D00002F004020191CDE90312EEE7001002408B
:1019E0000008014000040040704770B5044690F8BC
:1019F0003C000D4601280AD0012084F83C0042B189
:101A0000042A18D0082A2AD00C2A4DD139E0022005
:101A100070BD206801F03CFB2068816941F008013D
:101A200081612068816921F00401816120688169F8
:101A30002A69114311E0206801F052FB2068816996
:101A400041F4006181612068816921F480618161D4
:101A5000206881692A6941EA0221816124E02068C5
:101A600001F06AFB2068C16941F00801C16120688A
:101A7000C16921F00401C1612068C1692A6911436B
:101A800011E0206801F084FB2068C16941F4006125
:101A9000C1612068C16921F48061C1612068C169A8
:101AA0002A6941EA0221C161002084F83C0070BD2E
:101AB00010B5040003D094F83D0010B107E00120F8
:101AC00010BD002084F83C00204600F01EF80220E3
:101AD00084F83D00211D206801F084FA012084F87B
:101AE000460084F83E0084F83F0084F8400084F803
:101AF000410084F8420084F8430084F8440084F8EC
:101B0000450084F83D00002010BD7047704700007C
:101B100010B50446022249B104290ED0082913D079
:101B200094F84100012816D0012010BD94F83E0021
:101B30000128F9D184F83E200FE094F83F000128F5
:101B4000F2D184F83F2008E094F840000128EBD15E
:101B500084F8402001E084F841200122206801F04F
:101B600077FA0F492068884203D1426C42F4004260
:101B700042642068884208D0B0F1804F05D00949FE
:101B8000884202D00849884204D1816801F00701E7
:101B9000062903D0016841F001010160002010BD59
:101BA000002C0140000400400008004070477047CE
:101BB00070477047F8B5026804461068D1685369E9
:101BC00010F00F0F4FF0000553D003F0010601F4A1
:101BD000907737435FD0C20705D0CA0503D5226C82
:101BE00042F001022264420705D5DA0703D0226CD5
:101BF00042F002022264820705D5DA0703D0226C84
:101C000042F004022264020707D501F020023243A9
:101C100003D0226C42F008022264226C002A34D0E5
:101C2000800604D5880602D5204601F016FB206800
:101C30004069216CC0F38010090700D430B32046FE
:101C400001F0F3FA2068416949061BD5416921F08A
:101C500040014161A06BA8B158494163A06BFEF7F8
:101C60003BFB002811D0A06B416B01B0BDE8F040F8
:101C7000084783060FD58B060DD52046BDE8F840F2
:101C800001F0EBBA2046FFF794FFF8BD2046FFF7BE
:101C900090FF2564F8BD266B2023012E52D1C60685
:101CA00050D5CE064ED51068506800905069400659
:101CB0002AD5A16B086840680004000CEAD0A68D04
:101CC0008642E7D9E0858869202818D0D06820F4BA
:101CD0008070D0602068416921F001014161206875
:101CE000416921F04001416184F83E30256320685C
:101CF000C16821F01001C160A06BFEF7CAFAA08D87
:101D0000E18D401A81B219E0A08DE18D401A81B2B7
:101D1000E08D0028BED00029BCD0D06820F490709F
:101D2000D0602068426922F00102426184F83E30AE
:101D300025632068C26822F01002C2602046FFF7C7
:101D400037FFF8BD05062BD50D0629D594F83D00C3
:101D50002128F6D1A068B0F5805F01D12069B0B12B
:101D6000206A411C2162216800784860E08C401E96
:101D70000004000CE084E4D12068C16821F08001F7
:101D8000C1602068C16841F04001C160F8BD206AAF
:101D90000088C0F308005060206A801C2062E5E7DC
:101DA0004006F3D54806F1D5D168204621F0400120
:101DB000D16084F83D3000F076F8F8BD1B320008A1
:101DC00070B5040004D094F83D00002510B106E081
:101DD000012070BD84F83C50204600F023F82420F8
:101DE00084F83D002068C16821F40051C16020469C
:101DF00001F08EFA2068016921F4904101612068A8
:101E0000416921F02A0141612068C16841F4005113
:101E1000C1602564202084F83D0084F83E00002045
:101E200070BD000030B585B0002400940194029488
:101E300003940068184988422CD11848816941F4FC
:101E400080418161816901F480410491816941F09F
:101E5000040181618069124D00F0040004904FF488
:101E600000700090022001900320039069462846EC
:101E7000FEF794FA2815CDE9000469462846029435
:101E8000FEF78CFA002211462520FEF707FF2520D9
:101E9000FEF7F6FE05B030BD0038014000100240EC
:101EA0000008014070477047FEE700000148FEF758
:101EB00073BB0000100000200148FEF7CFBB0000FC
:101EC0001000002038B5406A002190F83D202B4BCF
:101ED00046F2A8141B68B3FBF4F3C3EBC30303EB94
:101EE000830300933BB15B1E009303681B689B0553
:101EF00005D5009BF6E7036C43F020030364436BB6
:101F000003B19962836B03B1996203681C6824F47E
:101F100080641C604185436B03B15963836B03B1DB
:101F2000596303681C6824F001041C6090F83D406C
:101F30002023602C0BD0282434EA02020FD080F832
:101F40003D3080F83E1000BFFEF7A0FC38BD80F8A1
:101F50003D3080F83E100164FEF71CFB38BD02687E
:101F6000136843F0010313600268136843F480634D
:101F70001360016380F83D40E6E700000C0000209C
:101F800070B5044690F83D0094F83E10102901D039
:101F9000402906D1222804D121680A6822F400626F
:101FA0000A60282131EA00024FF000054FF02006B8
:101FB00026D021684968090505D4602803D084F833
:101FC0003D6084F83E50256320684168090537D597
:101FD000416821F400614160606B3D4990F8212027
:101FE000012A11D04163606BFEF776F938B320689F
:101FF000016821F00101016084F83D60606B1CE024
:10200000256384F83D10DFE7A06B4163A06BFEF70A
:1020100063F9A0B120684169C943490605D4006944
:10202000616A0870606A401C60622068016821F083
:102030000101016084F83D60A06B416B884710E0AE
:1020400094F83D10602910D04169C943490605D470
:102050000069616A0870606A401C60622046FEF791
:1020600015FC206CC1071CD115E084F83D60256487
:102070004169C943490605D40069616A0870606A0C
:10208000401C60622068016821F001010160204667
:10209000FEF780FAE5E7810703D4410701D4000782
:1020A00004D52068416821F4E061416094F83D0066
:1020B000216C49070BD5282809D10648E062256321
:1020C00084F83D6084F83E502046FEF7A5FC70BDC4
:1020D000C51E00080000FFFF01684A69D24352058F
:1020E0000FD46FF480624A61002140F8301F202233
:1020F00042738173026942F004020261017301209C
:1021000070470020704710B5C26A438D0168042BE8
:1021100006D0438D032B08D0438D022B1DD012E037
:102120004A6822F480624A600CE04B6823F48063C2
:102130004B60042A06D0022A04D001680A6822F4FF
:1021400080620A6001680969426A1170416A491C2B
:102150004162418D491E418510BD012A30D0102AAF
:102160002ED0042A30D0022A2ED00A6842F40072FF
:102170000A6001680969426A1170416A491C41623A
:10218000428D521E4285026812690A70416A491CDA
:102190004162418D491E418501684A6822F44072BE
:1021A0004A60202180F83D1090F83E200021402A0E
:1021B00080F83E100CD012210163FEF72EFC10BDFA
:1021C0000A6822F48062D3E70A6842F48062CFE7AB
:1021D0000163FEF7BBFC10BD38B590F83D10222915
:1021E00014D1418D032912D901680969426A11701D
:1021F000416A491C4162418D491E4185418D032937
:1022000004D10068416821F48061416038BDC26A30
:10221000022AFBD0012901D00029F7D1274946F233
:10222000A81300220968B1FBF3F101EB81010091D1
:1022300001682023009C641E009422D00C68A40531
:10224000F8D40C6824F480640C6001684C6824F4B1
:10225000E0644C6001680969446A2170416A491C64
:102260004162418D491E418580F83D3090F83E1015
:1022700080F83E2040291DD012210163FEF7CDFBDE
:1022800038BD046C44F0200404644C6824F4E06419
:102290004C6001680969446A2170416A491C4162C5
:1022A000418D491E418580F83D3080F83E20FEF783
:1022B000EDFA38BD0263FEF749FC38BD0C00002082
:1022C000F8B50446C06A1E460D461746082807D0D2
:1022D000012805D010F5803F02D0206B122804D1D0
:1022E0002068016841F480710160134600224FF0BC
:1022F00001112046009600F04BFB40B120680068B9
:10230000C00502D54FF4007020640320F8BD206999
:10231000B0F5804F0ED00620216800EAD51040F0BD
:10232000F000086133463A460B49204600F064FB52
:1023300078B902E005F0FE0000E0E8B2216808612B
:10234000054933463A46891F204600F055FB0028D0
:10235000DCD00120F8BD00000800010010B5C26A01
:1023600090F83D1021290BD1418D51B1416A02688D
:1023700009781161416A491C4162418D491E4185BC
:1023800010BD20230021082A13D0202A11D012F5D5
:10239000803F0ED00268546824F4E0645460112237
:1023A000026380F83E1080F83D3000BFFEF736FB38
:1023B00010BD0268546824F4E06454600268146834
:1023C00044F400741460016380F83D3090F83E20BE
:1023D00080F83E10402AE9D1FEF7B9FB10BD00009D
:1023E00010B590F83D1090F83E30C26A048DB4B13B
:1023F000212903D0402B11D122290FD1418DE1B3E6
:1024000090F83E10402942D0416A02680978116173
:10241000416A491C4162418D491E418510BD2129F7
:10242000E8D120230021082A13D0202A11D012F548
:10243000803F0ED00268546824F4E0645460112296
:10244000026380F83E1080F83D3000BFFEF7E6FAE8
:1024500010BD0268546824F4E06454600268146893
:1024600044F400741460016380F83D3090F83E201D
:1024700080F83E10402AE9D100E002E0FEF767FB59
:1024800010BD0068416821F48061416010BDBDE865
:10249000104000F0F3B8000078B590F83E50C26AE2
:1024A000046B90F83D6000230168222E73D1066D05
:1024B0000EB9402D6FD0056D1DB90569B5F5404FBA
:1024C0001BD0458D95B3468D484D012E20D0448DAF
:1024D000022C4DD00C6844F480640C6001684C6898
:1024E000240579D5AA4273D0012A71D0082A6FD069
:1024F000102A6DD0202A6BD06EE04A698A6900925A
:102500000A6842F480720A60016D491C016578BD59
:10251000AA4214D10A6822F480620A6001684A68FB
:10252000120504D50A6822F4806217E0FFE74A69C1
:102530008A6900920A6842F400720A6050E0082A30
:1025400010D0202A0ED0122C0AD0042A03D0022A3E
:1025500001D0102AE6D10A6842F480620A603BE0AA
:10256000012ADFD00A6822F480620A600168DEE78F
:10257000042A11D0022A0FD0102A0DD00C6844F47E
:1025800000640C6001684C698C6900940C6824F448
:1025900080640C6008E025E00C6844F480640C6002
:1025A00001684C698969009101684C68240517D558
:1025B000AA4207D0012A05D0082A03D0102A01D048
:1025C000202A0DD14A6842F480524A6008E0FFE7B1
:1025D0004A6842F480524A6001684A6989690091F8
:1025E000036578BD48698869009078BD0000FFFFE9
:1025F00090F83E10402910D00169B1F5804F19D0F4
:10260000016DA9B3016D012910D1416C5FF0F10298
:1026100001F4407142EAD11106E0016D0029416CDC
:1026200005D0C9B241F0010100680161704701F0B5
:10263000FE01F9E790F83D102129416C09D0C9B29B
:1026400041F0010102681161416B29B1896A49B900
:1026500002E001F0FE01F5E7816B0029E6D0896A0E
:102660000029E3D00068416841F40061416070478F
:10267000FFE7416CF02201F44071CBE710B590F810
:102680003D10026D22B3026D012A2FD0026D022A85
:102690001DD122292FD0428D0AB1212933D0428D5C
:1026A000002A14D1212912D101684A6822F4E0627B
:1026B0004A6001680A6842F400720A6000210163FE
:1026C000202280F83D2080F83E10FEF740FA10BD31
:1026D000C16C0129816C02D0C1F3072108E00268B6
:1026E000C9B21161016D891C016510BD816CC9B24F
:1026F0000268116104E001680A6842F480720A60AD
:10270000016D491CF0E7416A026809781161416A6C
:10271000491C4162418D491E418510BD38B50C46AA
:1027200090F83D2000212825954302680B4605D0EE
:1027300051699169009180F83C3038BD556825F4A5
:1027400080655560E243540700D50121120601D58A
:10275000828900E0028B80F83C3092B2FDF71BFFCB
:1027600038BD00002DE9F04190F83D40C26A0023D9
:1027700020261C4F01686FF48065082A01D0202AAA
:1027800001D1282C04D0212C16D04D61BDE8F08158
:10279000C7624A6822F4E0624A6001684D610168DC
:1027A0000A6822F480620A60036380F83D6080F862
:1027B0003E30FEF731F9E9E7C7622122026380F873
:1027C0003D6080F83E304A6822F4E0624A60016869
:1027D0004D6101680A6822F480620A60FEF7F7F929
:1027E000D4E700000000FFFFF8B590F83D60044614
:1027F0000068416821F4E06141602068002541697A
:102800000091016841F0010101602068016821F434
:102810008061016020684168090520D5474F222E5C
:1028200048D02A2E46D0616B096849686185618D60
:1028300019B1216C41F004012164416821F4006167
:102840004160606BFDF794FD012808D0606B476321
:10285000606BFDF741FD10B1606B416B8847608D87
:1028600008B320684169C943490708D40069616A0F
:102870000870606A401C6062608D401E6085206840
:102880004169C943490608D40069616A0870606AF1
:10289000401C6062608D401E6085608D18B1206CA8
:1028A00040F004002064206C00B32046BDE8F840EE
:1028B000FFF766BBA16B096849686185618D19B135
:1028C000216C41F004012164416821F40061416000
:1028D000A06BFDF74DFD0128C1D0A06B4763A06B35
:1028E000FDF7FAFC0028BAD0A06BB6E72A2E06D175
:1028F0002563282084F83D002046FEF767F994F808
:102900003D10202028290DD0216B222901D0222E14
:1029100007D1256384F83D0084F83E502046FEF739
:1029200055F9F8BD0649E162256384F83D0084F855
:102930003E502046FEF770F8F8BD0000C51E0008A6
:102940000000FFFF70B516460D4604460DE0204618
:10295000FFF7C2FB08B1012070BD681C05D0FDF770
:1029600013FE801BA84207D835B120684069C043D8
:102970004007ECD4002070BD002044F8300F202127
:102980006173A073216941F0200121612073E2E7A6
:102990002DE9F0471E4690460D460446C1F3074711
:1029A000DDF8209008E0701C06D0FDF7EDFDA0EBEF
:1029B0000900B0420FD876B12068012F18D0806985
:1029C00025EA00000004000C14D000214145EAD0A3
:1029D0000020BDE8F087002044F8300F202161730B
:1029E000A073216941F02001216120730120F0E7EB
:1029F0004069E5E70121E9E72DE9F0479A4691466C
:102A00000E46044600254FF02008C1F3074725E095
:102A100020684069C043400514D42068016841F42F
:102A20000071016021686FF480604861256384F85B
:102A30003D8084F83E50206C40F00400206484F80F
:102A40003C501FE0B9F1FF3F08D0FDF79DFDA0EB22
:102A50000A0149450CD8B9F1000F09D02068012FAF
:102A600013D0806926EA00000004000C0BD0CFE7E9
:102A700044F8305F84F80D80A573206940F0200091
:102A8000206125730120BDE8F0874069EAE770B551
:102A900016460D4604460DE02046FFF71DFB08B123
:102AA000012070BD681C05D0FDF76EFD801BA8429B
:102AB00007D835B120684069C0430006ECD4002037
:102AC00070BD002044F8300F20216173A07321698C
:102AD00041F0200121612073E2E7000038B50022B7
:102AE00000928DF800000B4C8DF801100821204653
:102AF000FDF744FD0123022269460748FEF78AFCE0
:102B0000012208212046FDF739FD0120FDF734FCA4
:102B100038BD0000000801406400002010B500210D
:102B20000120FFF7DBFF00210220FFF7D7FF002184
:102B30000320FFF7D3FF00210420FFF7CFFF002180
:102B40000520FFF7CBFF00210620FFF7C7FF00217C
:102B50000720FFF7C3FF0021BDE810400820FFF762
:102B6000BDBF00002DE9F04186B000242D4800943F
:102B7000019402940394816941F02001816181698B
:102B800001F020010491816941F0040181618169B2
:102B900001F004010491816941F0080181618069BB
:102BA000DFF8848000F008000490002241F608015C
:102BB0004046FDF7E3FC1D4F002203213846FDF798
:102BC000DDFC01250820CDE900050226CDE90256ED
:102BD00069464046FDF7E2FB70208DE851006946EA
:102BE0004046FDF7DBFB0320CDE90005CDE90246B9
:102BF00069463846FDF7D2FB4FF46060CDE900042A
:102C0000694638460294FDF7C9FB4FF4C050CDE940
:102C10000005CDE9024669464046FDF7BFFB06B018
:102C2000BDE8F0810010024000080140000C0140A6
:102C30000E4810B50C4901604FF4827141600021CB
:102C40008160C1604FF400720161C0E90512C16189
:102C50000162416281620A21C162FEF73FFB0028E6
:102C600001D072B6FEE710BD0038004064000020BD
:102C700010B586B000241748009401940294039480
:102C800004941349059401604721C0E901144FF6EB
:102C9000FF71C0E9031444618461FEF7B9FC08B117
:102CA00072B6FEE74FF48050009069460948FEF77F
:102CB00047FD08B172B6FEE7049404A905480594DF
:102CC000FEF772FC002801D072B6FEE706B010BD18
:102CD000002C0140BC00002010B58EB000240794E9
:102CE000089409940A940B941C2168460C94FDF7EF
:102CF0006BFA1E484FF0804101604FF4B461C0E9A7
:102D0000011440F2E731C0E903148461FEF780FC4E
:102D100008B172B6FEE74FF48050079007A9134838
:102D2000FEF70EFD08B172B6FEE71048FEF7C0FED2
:102D300008B172B6FEE70B940BA90C480C94FEF791
:102D400033FC08B172B6FEE76020CDE900040294BE
:102D50000422694605480494FEF747FE08B172B69E
:102D6000FEE70248FEF70CFE0EB010BD0401002085
:102D700010B58EB000240794089409940A940B941B
:102D80001C2168460C94FDF71FFA1F481D4901607D
:102D90004FF4B461C0E9011440F2E731C0E9031413
:102DA0008461FEF735FC08B172B6FEE74FF480503F
:102DB000079007A91448FEF7C3FC08B172B6FEE7F6
:102DC0001148FEF775FE08B172B6FEE70B940BA929
:102DD0000D480C94FEF7E8FB08B172B6FEE76020E0
:102DE000CDE9000402940422694607480494FEF7E2
:102DF000FCFD08B172B6FEE70348FEF7C1FD0EB058
:102E000010BD0000000400404C01002010B586B049
:102E100000241748009401940294039404941349E5
:102E2000059401604721C0E901144FF6FF71C0E924
:102E300003148461FEF7ECFB08B172B6FEE74FF4B1
:102E40008050009069460A48FEF77AFC08B172B6D5
:102E5000FEE7049404A906480594FEF7A5FB0028A4
:102E600001D072B6FEE706B010BD000000080040B9
:102E700094010020FEE7FEE7704700000148FEF7DE
:102E8000BDB900006400002010B5406A0021C18770
:102E9000C186FEF7B1F910BD38B50B460092044665
:102EA0000022802100F008F8002804D0606D40F076
:102EB00020006065032038BD2DE9F8431E46914689
:102EC00088460446089DFDF75FFB401B351AFDF759
:102ED0005BFB074625480068C0F3CB30684338E009
:102EE000701C37D0FDF750FBC01BA84203D215B1B0
:102EF000009860B32CE02068416821F0E001416057
:102F00006068B0F5827F0BD1A068B0F5004F02D0A9
:102F1000B0F5806F04D12068016821F040010160A4
:102F2000A06AB0F5005F09D12068016821F4005162
:102F300001602068016841F400510160012084F8BB
:102F40005100002084F850000320BDE8F8830025DC
:102F5000401E00902068816838EA010004D00021FA
:102F60004945BDD10020F0E70121F9E70C00002020
:102F70007047FDF72DBE30B58FB028216846FDF7AC
:102F800023F914210AA8FDF71FF901210804CDE94E
:102F900000100024029402250491CDE907504FF45B
:102FA000E01009906846FDF797FF08B172B6FEE79A
:102FB0000F20CDE90A054FF48060CDE90C400221D5
:102FC0000AA80E94FDF79CFE002801D072B6FEE719
:102FD0000FB030BD704700000148FEF71DBC000077
:102FE00004010020F0B50268164B174C174D4FF046
:102FF0008047984205D0B84203D0A04201D0A842F1
:1030000003D122F070064A683243984205D0B84294
:1030100003D0A04201D0A84203D122F44074CA6870
:1030200022434C6922F08002224302608A68C26215
:103030000A688262984201D10969016301214161F4
:10304000F0BD0000002C01400004004000080040DA
:1030500010B501F01F030121046A99408C430462FA
:10306000016A9A401143016210BD10B5846842EABA
:10307000032224F47F440A432243826010BD826805
:1030800022F070020A4342F007018160704700009D
:1030900030B5026A22F001020262026A4368846962
:1030A00024F073050C682C4322F002058A682A4339
:1030B0000A4DA8420BD122F00805CA6823F44073D8
:1030C0002A434D6922F004021D438B692B43436060
:1030D000846149684163026230BD0000002C0140F8
:1030E00030B5026A22F010020262026A4368846903
:1030F0000D6824F4E64444EA05248D6822F0200299
:1031000042EA05120B4DA8420ED1CD6822F0800292
:1031100042EA05124D6923F4406343EA85038D6951
:1031200022F0400243EA8503436084614968816379
:10313000026230BD002C014030B5026A22F4807278
:103140000262036A4268C46923F4007324F07305C1
:103150000C682C438D6843EA05230C4DA8420ED120
:10316000CD6823F4006343EA05234D6922F44052FD
:1031700042EA05128D6923F4806342EA0512426037
:10318000C4614968C163036230BD0000002C014086
:1031900030B5026A22F480520262046A4268C3694E
:1031A0000D6823F4E64343EA05238D6824F40054B4
:1031B00044EA0534064DA84204D14D6922F4804208
:1031C00042EA85124260C36149680164046230BD0D
:1031D000002C014010B5036A046A24F00104046263
:1031E000846924F0F00444EA021423F00A020A433A
:1031F0008461026210BD10B5036A23F010030362FC
:103200008369046A23F4704343EA023224F0A00382
:1032100043EA01118261016210BD10B5406A0021CC
:10322000C185C184FEF7C5FC10BD0168CA6822F4DF
:103230009072CA6001684A6922F001024A61016B1A
:10324000012904D10168CA6822F01002CA60202155
:1032500080F83E1000210163704708B590F83E10D9
:10326000222901D0022008BD82684FF480539A427F
:1032700001D1016921B1816A9A421BD04AB10AE0A9
:103280000268816A5268C2F308020A80816A891C56
:1032900008E0026972B10268526802F07F020A70A7
:1032A000816A491C8162C18D491E0904090CC185CE
:1032B00003D019E002685268F1E70168CA6822F099
:1032C0002002CA600168CA6822F48072CA6001687C
:1032D0004A6922F001024A61202180F83E10016B08
:1032E000012903D0FEF7DEFD002008BD00210163A7
:1032F0000168CA6822F01002CA6001680A68D20632
:1033000002D50A6849680091818DFEF751FCEBE710
:1033100070B5044600680169E26821F44051114328
:1033200001612169A0680843616908432168CA688E
:1033300041F20C639A430243CA6020684169A26962
:1033400021F44071114341611E492068884202D135
:10335000FDF77CFD01E0FDF769FD00EBC00101EB2D
:103360000012606864218000B2FBF0F3B3FBF1F35C
:103370006FF018067343B2FBF0F5B2FBF0F605EB05
:103380008305322303EB0515B5FBF1F5B6FBF1F62A
:1033900005F0F00505EB0615B2FBF0F6B2FBF0F018
:1033A000B0FBF1F06FF01802504306EB800003EB26
:1033B0000010B0FBF1F0216800F00F002844886095
:1033C00070BD0000003801400148FEF7F3BB00006B
:1033D000DC010020FEE70907090E002804DB00F1EC
:1033E000E02080F80014704700F00F0000F1E020AA
:1033F00080F8141D704710B5802000F045F80024B7
:10340000202000F061F8641C462CF9DB10BD10B5DB
:103410003220FCF7B1FF302000F036F80520FCF731
:10342000ABFF302000F030F80120FCF7A5FF302082
:1034300000F02AF80A20FCF79FFF202000F024F873
:103440000A20FCF799FF282000F01EF80120FCF765
:1034500093FF082000F018F80120FCF78DFF0120F1
:1034600000F012F80120FCF787FF0120FCF784FF31
:10347000062000F009F80120FCF77EFFBDE81040AF
:103480000C2000F001B800001CB500F0F00141F084
:103490000C028DF8042041F0080100018DF80510A0
:1034A00040F00C018DF8061040F008008DF8070080
:1034B00064200090042301AA4E210248FDF7B0FACF
:1034C0001CBD0000100000201CB500F0F00141F010
:1034D0000D028DF8042041F0090100018DF805105E
:1034E00040F00D018DF8061040F009008DF807003E
:1034F00064200090042301AA4E210248FDF790FAAF
:103500001CBD00001000002010B5044602E0641C41
:10351000FFF7DAFF20780028F9D110BDFDF760FB36
:10352000FFF775FFFFF727FDFFF71CFB3B483A4904
:10353000002401603A49C0E901144FF48041C0E918
:10354000034144618461C4610462FDF7A1F908B1DB
:1035500072B6FEE7FFF76CFBFFF7BEFB324831495E
:1035600001604FF41651C0E901140C21C460C0E998
:1035700004418461C461FEF723FC08B172B6FEE722
:10358000FFF7F6FBFFF774FBFFF740FC0021092073
:10359000FFF7A4FA02210A20FFF7A0FA01210C206C
:1035A000FFF79CFA00210F20FFF798FA07210B2064
:1035B000FFF794FAFFF7B2FA1B480421D838FEF758
:1035C000A7FA194804219038FEF7A2FA1348AC3044
:1035D000FEF78EF8154C002201212046FCF7CEFFA5
:1035E00011484838FEF784F8002202212046FCF7F3
:1035F000C5FFFFF700FF0EA0FFF786FF0A4C4B2523
:10360000D83CAF001926206885633846FCF7B4FE25
:1036100020688663F7E70000005400401000002097
:10362000A086010000380140DC010020000C0140B0
:103630002057656C636F6D6520000000000000007E
:103640000000000001020304060708090000000052
:10365000010203047436000800000020100000007E
:10366000280100088436000810000020B808000077
:1036700044010008010000001000000000000000EC
:043680000024F4002E
:04000005080000ED02
:00000001FF
